{
  "_format": "hh-sol-artifact-1",
  "contractName": "UniversityDegree",
  "sourceName": "contracts/UniversityDegree.sol",
  "abi": [
    {
      "inputs": [],
      "stateMutability": "nonpayable",
      "type": "constructor"
    },
    {
      "anonymous": false,
      "inputs": [
        {
          "indexed": true,
          "internalType": "address",
          "name": "owner",
          "type": "address"
        },
        {
          "indexed": true,
          "internalType": "address",
          "name": "approved",
          "type": "address"
        },
        {
          "indexed": true,
          "internalType": "uint256",
          "name": "tokenId",
          "type": "uint256"
        }
      ],
      "name": "Approval",
      "type": "event"
    },
    {
      "anonymous": false,
      "inputs": [
        {
          "indexed": true,
          "internalType": "address",
          "name": "owner",
          "type": "address"
        },
        {
          "indexed": true,
          "internalType": "address",
          "name": "operator",
          "type": "address"
        },
        {
          "indexed": false,
          "internalType": "bool",
          "name": "approved",
          "type": "bool"
        }
      ],
      "name": "ApprovalForAll",
      "type": "event"
    },
    {
      "anonymous": false,
      "inputs": [
        {
          "indexed": true,
          "internalType": "uint256",
          "name": "tokenId",
          "type": "uint256"
        },
        {
          "indexed": true,
          "internalType": "address",
          "name": "to",
          "type": "address"
        },
        {
          "indexed": false,
          "internalType": "string",
          "name": "tokenURI",
          "type": "string"
        }
      ],
      "name": "DegreeBurned",
      "type": "event"
    },
    {
      "anonymous": false,
      "inputs": [
        {
          "indexed": true,
          "internalType": "address",
          "name": "to",
          "type": "address"
        },
        {
          "indexed": false,
          "internalType": "string",
          "name": "tokenURI",
          "type": "string"
        }
      ],
      "name": "DegreeIssued",
      "type": "event"
    },
    {
      "anonymous": false,
      "inputs": [
        {
          "indexed": true,
          "internalType": "address",
          "name": "person",
          "type": "address"
        }
      ],
      "name": "DegreeRequestRejected",
      "type": "event"
    },
    {
      "anonymous": false,
      "inputs": [
        {
          "indexed": true,
          "internalType": "address",
          "name": "from",
          "type": "address"
        },
        {
          "indexed": true,
          "internalType": "address",
          "name": "to",
          "type": "address"
        },
        {
          "indexed": true,
          "internalType": "uint256",
          "name": "tokenId",
          "type": "uint256"
        }
      ],
      "name": "Transfer",
      "type": "event"
    },
    {
      "inputs": [
        {
          "internalType": "address",
          "name": "newOwner",
          "type": "address"
        }
      ],
      "name": "addOwner",
      "outputs": [],
      "stateMutability": "nonpayable",
      "type": "function"
    },
    {
      "inputs": [
        {
          "internalType": "address",
          "name": "",
          "type": "address"
        },
        {
          "internalType": "uint256",
          "name": "",
          "type": "uint256"
        }
      ],
      "name": "approve",
      "outputs": [],
      "stateMutability": "nonpayable",
      "type": "function"
    },
    {
      "inputs": [
        {
          "internalType": "address",
          "name": "owner",
          "type": "address"
        }
      ],
      "name": "balanceOf",
      "outputs": [
        {
          "internalType": "uint256",
          "name": "",
          "type": "uint256"
        }
      ],
      "stateMutability": "view",
      "type": "function"
    },
    {
      "inputs": [
        {
          "internalType": "address",
          "name": "person",
          "type": "address"
        }
      ],
      "name": "burnDegree",
      "outputs": [],
      "stateMutability": "nonpayable",
      "type": "function"
    },
    {
      "inputs": [
        {
          "internalType": "address",
          "name": "person",
          "type": "address"
        }
      ],
      "name": "checkDegreeOfPerson",
      "outputs": [
        {
          "components": [
            {
              "internalType": "uint256",
              "name": "tokenId",
              "type": "uint256"
            },
            {
              "internalType": "address",
              "name": "person",
              "type": "address"
            },
            {
              "internalType": "string",
              "name": "tokenURI",
              "type": "string"
            },
            {
              "internalType": "bool",
              "name": "issued",
              "type": "bool"
            }
          ],
          "internalType": "struct UniversityDegree.Degree",
          "name": "",
          "type": "tuple"
        }
      ],
      "stateMutability": "view",
      "type": "function"
    },
    {
      "inputs": [
        {
          "internalType": "address",
          "name": "person",
          "type": "address"
        }
      ],
      "name": "checkRequestOfPerson",
      "outputs": [
        {
          "internalType": "bool",
          "name": "",
          "type": "bool"
        }
      ],
      "stateMutability": "view",
      "type": "function"
    },
    {
      "inputs": [],
      "name": "getAllClaimedDegrees",
      "outputs": [
        {
          "components": [
            {
              "internalType": "uint256",
              "name": "tokenId",
              "type": "uint256"
            },
            {
              "internalType": "address",
              "name": "person",
              "type": "address"
            },
            {
              "internalType": "string",
              "name": "tokenURI",
              "type": "string"
            },
            {
              "internalType": "bool",
              "name": "issued",
              "type": "bool"
            }
          ],
          "internalType": "struct UniversityDegree.Degree[]",
          "name": "",
          "type": "tuple[]"
        }
      ],
      "stateMutability": "view",
      "type": "function"
    },
    {
      "inputs": [
        {
          "internalType": "uint256",
          "name": "tokenId",
          "type": "uint256"
        }
      ],
      "name": "getApproved",
      "outputs": [
        {
          "internalType": "address",
          "name": "",
          "type": "address"
        }
      ],
      "stateMutability": "view",
      "type": "function"
    },
    {
      "inputs": [],
      "name": "getNotClaimedDegrees",
      "outputs": [
        {
          "components": [
            {
              "internalType": "uint256",
              "name": "tokenId",
              "type": "uint256"
            },
            {
              "internalType": "address",
              "name": "person",
              "type": "address"
            },
            {
              "internalType": "string",
              "name": "tokenURI",
              "type": "string"
            },
            {
              "internalType": "bool",
              "name": "issued",
              "type": "bool"
            }
          ],
          "internalType": "struct UniversityDegree.Degree[]",
          "name": "",
          "type": "tuple[]"
        }
      ],
      "stateMutability": "view",
      "type": "function"
    },
    {
      "inputs": [
        {
          "internalType": "address",
          "name": "owner",
          "type": "address"
        },
        {
          "internalType": "address",
          "name": "operator",
          "type": "address"
        }
      ],
      "name": "isApprovedForAll",
      "outputs": [
        {
          "internalType": "bool",
          "name": "",
          "type": "bool"
        }
      ],
      "stateMutability": "view",
      "type": "function"
    },
    {
      "inputs": [
        {
          "internalType": "address",
          "name": "person",
          "type": "address"
        }
      ],
      "name": "isOwner",
      "outputs": [
        {
          "internalType": "bool",
          "name": "",
          "type": "bool"
        }
      ],
      "stateMutability": "view",
      "type": "function"
    },
    {
      "inputs": [
        {
          "internalType": "address",
          "name": "to",
          "type": "address"
        },
        {
          "internalType": "string",
          "name": "tokenURI",
          "type": "string"
        }
      ],
      "name": "issueDegree",
      "outputs": [],
      "stateMutability": "nonpayable",
      "type": "function"
    },
    {
      "inputs": [],
      "name": "name",
      "outputs": [
        {
          "internalType": "string",
          "name": "",
          "type": "string"
        }
      ],
      "stateMutability": "view",
      "type": "function"
    },
    {
      "inputs": [
        {
          "internalType": "uint256",
          "name": "tokenId",
          "type": "uint256"
        }
      ],
      "name": "ownerOf",
      "outputs": [
        {
          "internalType": "address",
          "name": "",
          "type": "address"
        }
      ],
      "stateMutability": "view",
      "type": "function"
    },
    {
      "inputs": [
        {
          "internalType": "address",
          "name": "",
          "type": "address"
        }
      ],
      "name": "personToDegree",
      "outputs": [
        {
          "internalType": "uint256",
          "name": "tokenId",
          "type": "uint256"
        },
        {
          "internalType": "address",
          "name": "person",
          "type": "address"
        },
        {
          "internalType": "string",
          "name": "tokenURI",
          "type": "string"
        },
        {
          "internalType": "bool",
          "name": "issued",
          "type": "bool"
        }
      ],
      "stateMutability": "view",
      "type": "function"
    },
    {
      "inputs": [
        {
          "internalType": "address",
          "name": "person",
          "type": "address"
        }
      ],
      "name": "rejectRequest",
      "outputs": [],
      "stateMutability": "nonpayable",
      "type": "function"
    },
    {
      "inputs": [
        {
          "internalType": "string",
          "name": "tokenURI",
          "type": "string"
        }
      ],
      "name": "requestDegree",
      "outputs": [],
      "stateMutability": "nonpayable",
      "type": "function"
    },
    {
      "inputs": [
        {
          "internalType": "address",
          "name": "",
          "type": "address"
        },
        {
          "internalType": "bool",
          "name": "",
          "type": "bool"
        }
      ],
      "name": "setApprovalForAll",
      "outputs": [],
      "stateMutability": "nonpayable",
      "type": "function"
    },
    {
      "inputs": [
        {
          "internalType": "bytes4",
          "name": "interfaceId",
          "type": "bytes4"
        }
      ],
      "name": "supportsInterface",
      "outputs": [
        {
          "internalType": "bool",
          "name": "",
          "type": "bool"
        }
      ],
      "stateMutability": "view",
      "type": "function"
    },
    {
      "inputs": [],
      "name": "symbol",
      "outputs": [
        {
          "internalType": "string",
          "name": "",
          "type": "string"
        }
      ],
      "stateMutability": "view",
      "type": "function"
    },
    {
      "inputs": [
        {
          "internalType": "uint256",
          "name": "tokenId",
          "type": "uint256"
        }
      ],
      "name": "tokenURI",
      "outputs": [
        {
          "internalType": "string",
          "name": "",
          "type": "string"
        }
      ],
      "stateMutability": "view",
      "type": "function"
    },
    {
      "inputs": [
        {
          "internalType": "address",
          "name": "from",
          "type": "address"
        },
        {
          "internalType": "address",
          "name": "to",
          "type": "address"
        },
        {
          "internalType": "uint256",
          "name": "tokenId",
          "type": "uint256"
        }
      ],
      "name": "transferFrom",
      "outputs": [],
      "stateMutability": "nonpayable",
      "type": "function"
    }
  ],
  "bytecode": "0x60806040523480156200001157600080fd5b506040805180820182526006815265151c9d59525160d21b60208083019182528351808501909452600384526215125160ea1b9084015281519192916200005b91600091620000e7565b50805162000071906001906020840190620000e7565b5050600880546001818101835560008390527ff3f7a9fe364faab93b216da50a3214154f22a0a2b415b23a84c8169e8b636ee391820180546001600160a01b031990811633179091558354918201909355018054909116735363432541bf9838b74ad922826d74540cb0578817905550620001ca565b828054620000f5906200018d565b90600052602060002090601f01602090048101928262000119576000855562000164565b82601f106200013457805160ff191683800117855562000164565b8280016001018555821562000164579182015b828111156200016457825182559160200191906001019062000147565b506200017292915062000176565b5090565b5b8082111562000172576000815560010162000177565b600281046001821680620001a257607f821691505b60208210811415620001c457634e487b7160e01b600052602260045260246000fd5b50919050565b61287a80620001da6000396000f3fe608060405234801561001057600080fd5b50600436106101425760003560e01c80636352211e116100b8578063a22cb4651161007c578063a22cb465146102a7578063b5d473da146102ba578063c542f2ac146102da578063c87b56dd146102ed578063ca07b4b414610300578063e985e9c51461031357610142565b80636352211e146102465780636ae116f8146102595780637065cb481461026c57806370a082311461027f57806395d89b411461029f57610142565b806319208ea11161010a57806319208ea1146101cd57806323b872dd146101e05780632f54bf6e146101f357806337f902f01461020657806350e561b8146102295780635e7531dc1461023e57610142565b806301ffc9a71461014757806306fdde0314610170578063081812fc14610185578063095ea7b3146101a557806317a4889d146101ba575b600080fd5b61015a610155366004611f46565b610326565b60405161016791906120cf565b60405180910390f35b61017861036e565b60405161016791906120da565b610198610193366004611fa1565b610401565b604051610167919061205b565b6101b86101b3366004611f1d565b61044d565b005b6101b86101c8366004611f6e565b610465565b6101b86101db366004611e10565b6105c8565b6101b86101ee366004611e5c565b6107fa565b61015a610201366004611e10565b610837565b610219610214366004611e10565b6108aa565b60405161016794939291906126e8565b610231610968565b604051610167919061206f565b610231610bdd565b610198610254366004611fa1565b610e4a565b61015a610267366004611e10565b610e7f565b6101b861027a366004611e10565b610e9d565b61029261028d366004611e10565b610f74565b60405161016791906126df565b610178610fb8565b6101b86102b5366004611e97565b610fc7565b6102cd6102c8366004611e10565b610fdf565b60405161016791906126cc565b6101b86102e8366004611ed1565b6110cc565b6101786102fb366004611fa1565b611290565b6101b861030e366004611e10565b6113b1565b61015a610321366004611e2a565b61151d565b60006001600160e01b03198216637aa5391d60e01b148061035757506001600160e01b03198216635b5e139f60e01b145b8061036657506103668261154b565b90505b919050565b60606000805461037d90612798565b80601f01602080910402602001604051908101604052809291908181526020018280546103a990612798565b80156103f65780601f106103cb576101008083540402835291602001916103f6565b820191906000526020600020905b8154815290600101906020018083116103d957829003601f168201915b505050505090505b90565b600061040c82611564565b6104315760405162461bcd60e51b81526004016104289061247c565b60405180910390fd5b506000908152600460205260409020546001600160a01b031690565b60405162461bcd60e51b8152600401610428906120ed565b336000908152600b602052604090205460ff16156104955760405162461bcd60e51b8152600401610428906125a0565b60008151116104b65760405162461bcd60e51b815260040161042890612153565b3360009081526009602052604090206003015460ff16156104e95760405162461bcd60e51b81526004016104289061266d565b6104f36007611581565b60006104ff600761158a565b6040805160808101825282815233602080830182815283850188815260006060860181905293845260098352949092208351815591516001830180546001600160a01b0319166001600160a01b039092169190911790559251805194955091939092610572926002850192910190611c70565b50606091909101516003909101805491151560ff19928316179055336000818152600b602090815260408083208054909516600117909455938152600a909352912080546001600160a01b031916909117905550565b6001600160a01b03811660009081526009602052604090206003015460ff166106035760405162461bcd60e51b81526004016104289061218a565b6001600160a01b038116600090815260096020526040902054806106395760405162461bcd60e51b81526004016104289061229b565b600061064482610e4a565b9050600061065061158e565b336001600160a01b039182168114925090831614818061066d5750805b6106895760405162461bcd60e51b8152600401610428906126a4565b6001600160a01b038516600090815260096020526040812060020180546106af90612798565b80601f01602080910402602001604051908101604052809291908181526020018280546106db90612798565b80156107285780601f106106fd57610100808354040283529160200191610728565b820191906000526020600020905b81548152906001019060200180831161070b57829003601f168201915b5050505050905061073885611632565b6001600160a01b0386166000908152600b60209081526040808320805460ff19169055600990915281208181556001810180546001600160a01b0319169055906107856002830182611cf4565b50600301805460ff191690556000858152600a60205260409081902080546001600160a01b0319169055516001600160a01b0387169086907f2bf9868dac278b225f484411e274ff3560e7cab5729b5edd79d77a81bf503016906107ea9085906120da565b60405180910390a3505050505050565b61080b610805611675565b82611679565b6108275760405162461bcd60e51b8152600401610428906125d7565b6108328383836116fd565b505050565b6000805b6008548110156108a1576008818154811061086657634e487b7160e01b600052603260045260246000fd5b6000918252602090912001546001600160a01b038481169116141561088f576001915050610369565b80610899816127d3565b91505061083b565b50600092915050565b60096020526000908152604090208054600182015460028301805492936001600160a01b03909216926108dc90612798565b80601f016020809104026020016040519081016040528092919081815260200182805461090890612798565b80156109555780601f1061092a57610100808354040283529160200191610955565b820191906000526020600020905b81548152906001019060200180831161093857829003601f168201915b5050506003909301549192505060ff1684565b60606000610976600761158a565b9050600060015b8281116109ec576000818152600a60205260409020546001600160a01b031680158015906109c657506001600160a01b03811660009081526009602052604090206003015460ff165b156109d957826109d5816127d3565b9350505b50806109e4816127d3565b91505061097d565b5060008167ffffffffffffffff811115610a1657634e487b7160e01b600052604160045260246000fd5b604051908082528060200260200182016040528015610a4f57816020015b610a3c611d30565b815260200190600190039081610a345790505b509050600060015b848111610bd3576000818152600a60205260409020546001600160a01b03168015801590610aa057506001600160a01b03811660009081526009602052604090206003015460ff165b15610bc0576001600160a01b038082166000908152600960209081526040918290208251608081018452815481526001820154909416918401919091526002810180549192840191610af190612798565b80601f0160208091040260200160405190810160405280929190818152602001828054610b1d90612798565b8015610b6a5780601f10610b3f57610100808354040283529160200191610b6a565b820191906000526020600020905b815481529060010190602001808311610b4d57829003601f168201915b50505091835250506003919091015460ff1615156020909101528451859085908110610ba657634e487b7160e01b600052603260045260246000fd5b60200260200101819052508280610bbc906127d3565b9350505b5080610bcb816127d3565b915050610a57565b5090935050505090565b60606000610beb600761158a565b9050600060015b828111610c62576000818152600a60205260409020546001600160a01b03168015801590610c3c57506001600160a01b03811660009081526009602052604090206003015460ff16155b15610c4f5782610c4b816127d3565b9350505b5080610c5a816127d3565b915050610bf2565b5060008167ffffffffffffffff811115610c8c57634e487b7160e01b600052604160045260246000fd5b604051908082528060200260200182016040528015610cc557816020015b610cb2611d30565b815260200190600190039081610caa5790505b509050600060015b848111610bd3576000818152600a60205260409020546001600160a01b03168015801590610d1757506001600160a01b03811660009081526009602052604090206003015460ff16155b15610e37576001600160a01b038082166000908152600960209081526040918290208251608081018452815481526001820154909416918401919091526002810180549192840191610d6890612798565b80601f0160208091040260200160405190810160405280929190818152602001828054610d9490612798565b8015610de15780601f10610db657610100808354040283529160200191610de1565b820191906000526020600020905b815481529060010190602001808311610dc457829003601f168201915b50505091835250506003919091015460ff1615156020909101528451859085908110610e1d57634e487b7160e01b600052603260045260246000fd5b60200260200101819052508280610e33906127d3565b9350505b5080610e42816127d3565b915050610ccd565b6000818152600260205260408120546001600160a01b0316806103665760405162461bcd60e51b81526004016104289061235f565b6001600160a01b03166000908152600b602052604090205460ff1690565b6000805b600854811015610f035760088181548110610ecc57634e487b7160e01b600052603260045260246000fd5b6000918252602090912001546001600160a01b0316331415610ef15760019150610f03565b80610efb816127d3565b915050610ea1565b5080610f215760405162461bcd60e51b815260040161042890612231565b50600880546001810182556000919091527ff3f7a9fe364faab93b216da50a3214154f22a0a2b415b23a84c8169e8b636ee30180546001600160a01b0319166001600160a01b0392909216919091179055565b60006001600160a01b038216610f9c5760405162461bcd60e51b815260040161042890612315565b506001600160a01b031660009081526003602052604090205490565b60606001805461037d90612798565b60405162461bcd60e51b815260040161042890612628565b610fe7611d30565b6001600160a01b03808316600090815260096020908152604091829020825160808101845281548152600182015490941691840191909152600281018054919284019161103390612798565b80601f016020809104026020016040519081016040528092919081815260200182805461105f90612798565b80156110ac5780601f10611081576101008083540402835291602001916110ac565b820191906000526020600020905b81548152906001019060200180831161108f57829003601f168201915b50505091835250506003919091015460ff16151560209091015292915050565b6000805b60085481101561113257600881815481106110fb57634e487b7160e01b600052603260045260246000fd5b6000918252602090912001546001600160a01b03163314156111205760019150611132565b8061112a816127d3565b9150506110d0565b50806111505760405162461bcd60e51b815260040161042890612231565b6001600160a01b03831660009081526009602052604090206003015460ff161561118c5760405162461bcd60e51b815260040161042890612124565b6001600160a01b0383166000908152600960205260409020546111af8482611830565b6111b9818461191b565b604080516080810182528281526001600160a01b0386811660208084018281528486018981526001606087018190526000948552600984529690932085518155905195810180546001600160a01b031916969094169590951790925551805192939261122b9260028501920190611c70565b50606091909101516003909101805460ff19169115159190911790556040516001600160a01b038516907f77aa2104a5847fc7effd20305146555291d6e4a9cf31d06543eceabc88bda8b3906112829086906120da565b60405180910390a250505050565b606061129b82611564565b6112b75760405162461bcd60e51b81526004016104289061242b565b600082815260066020526040812080546112d090612798565b80601f01602080910402602001604051908101604052809291908181526020018280546112fc90612798565b80156113495780601f1061131e57610100808354040283529160200191611349565b820191906000526020600020905b81548152906001019060200180831161132c57829003601f168201915b50505050509050600061135a61195f565b905080516000141561136e57509050610369565b8151156113a057808260405160200161138892919061202c565b60405160208183030381529060405292505050610369565b6113a984611971565b949350505050565b6000805b60085481101561141757600881815481106113e057634e487b7160e01b600052603260045260246000fd5b6000918252602090912001546001600160a01b03163314156114055760019150611417565b8061140f816127d3565b9150506113b5565b50806114355760405162461bcd60e51b815260040161042890612231565b6001600160a01b0382166000908152600b602052604090205460ff1661146d5760405162461bcd60e51b8152600401610428906124c8565b6001600160a01b03821660009081526009602081815260408084208054600b8452918520805460ff19169055929091528282556001820180546001600160a01b0319169055916114c06002830182611cf4565b50600301805460ff191690556000818152600a602052604080822080546001600160a01b0319169055516001600160a01b038516917f9c22a4fd4153f77f11c8f0136b1c08911327b1a3b967fc47d52b3a598138d8da91a2505050565b6001600160a01b03918216600090815260056020908152604080832093909416825291909152205460ff1690565b6001600160e01b031981166301ffc9a760e01b14919050565b6000908152600260205260409020546001600160a01b0316151590565b80546001019055565b5490565b6000805b60085481101561162a57600881815481106115bd57634e487b7160e01b600052603260045260246000fd5b6000918252602090912001546001600160a01b031633141561161857600881815481106115fa57634e487b7160e01b600052603260045260246000fd5b6000918252602090912001546001600160a01b031691506103fe9050565b80611622816127d3565b915050611592565b506000905090565b61163b816119f4565b6000818152600660205260409020805461165490612798565b15905061167257600081815260066020526040812061167291611cf4565b50565b3390565b600061168482611564565b6116a05760405162461bcd60e51b8152600401610428906122c9565b60006116ab83610e4a565b9050806001600160a01b0316846001600160a01b031614806116d257506116d2818561151d565b806113a95750836001600160a01b03166116eb84610401565b6001600160a01b031614949350505050565b826001600160a01b031661171082610e4a565b6001600160a01b0316146117365760405162461bcd60e51b8152600401610428906121b5565b6001600160a01b03821661175c5760405162461bcd60e51b815260040161042890612257565b611767838383611aa3565b611772600082611ae7565b6001600160a01b038316600090815260036020526040812080546001929061179b908490612751565b90915550506001600160a01b03821660009081526003602052604081208054600192906117c9908490612725565b909155505060008181526002602052604080822080546001600160a01b0319166001600160a01b0386811691821790925591518493918716917fddf252ad1be2c89b69c2b068fc378daa952ba7f163c4a11628f55a4df523b3ef91a4610832838383610832565b6001600160a01b0382166118565760405162461bcd60e51b8152600401610428906123f6565b61185f81611564565b1561187c5760405162461bcd60e51b8152600401610428906121fa565b61188860008383611aa3565b6001600160a01b03821660009081526003602052604081208054600192906118b1908490612725565b909155505060008181526002602052604080822080546001600160a01b0319166001600160a01b03861690811790915590518392907fddf252ad1be2c89b69c2b068fc378daa952ba7f163c4a11628f55a4df523b3ef908290a461191760008383610832565b5050565b61192482611564565b6119405760405162461bcd60e51b8152600401610428906123a8565b6000828152600660209081526040909120825161083292840190611c70565b60408051602081019091526000815290565b606061197c82611564565b6119985760405162461bcd60e51b8152600401610428906124ff565b60006119a261195f565b905060008151116119c257604051806020016040528060008152506119ed565b806119cc84611b55565b6040516020016119dd92919061202c565b6040516020818303038152906040525b9392505050565b60006119ff82610e4a565b9050611a0d81600084611aa3565b611a18600083611ae7565b6001600160a01b0381166000908152600360205260408120805460019290611a41908490612751565b909155505060008281526002602052604080822080546001600160a01b0319169055518391906001600160a01b038416907fddf252ad1be2c89b69c2b068fc378daa952ba7f163c4a11628f55a4df523b3ef908390a461191781600084610832565b6001600160a01b0383161580611ac057506001600160a01b038216155b611adc5760405162461bcd60e51b81526004016104289061254e565b610832838383610832565b600081815260046020526040902080546001600160a01b0319166001600160a01b0384169081179091558190611b1c82610e4a565b6001600160a01b03167f8c5be1e5ebec7d5bd14f71427d1e84f3dd0314c0f7b2291e5b200ac8c7c3b92560405160405180910390a45050565b606081611b7a57506040805180820190915260018152600360fc1b6020820152610369565b8160005b8115611ba45780611b8e816127d3565b9150611b9d9050600a8361273d565b9150611b7e565b60008167ffffffffffffffff811115611bcd57634e487b7160e01b600052604160045260246000fd5b6040519080825280601f01601f191660200182016040528015611bf7576020820181803683370190505b5090505b84156113a957611c0c600183612751565b9150611c19600a866127ee565b611c24906030612725565b60f81b818381518110611c4757634e487b7160e01b600052603260045260246000fd5b60200101906001600160f81b031916908160001a905350611c69600a8661273d565b9450611bfb565b828054611c7c90612798565b90600052602060002090601f016020900481019282611c9e5760008555611ce4565b82601f10611cb757805160ff1916838001178555611ce4565b82800160010185558215611ce4579182015b82811115611ce4578251825591602001919060010190611cc9565b50611cf0929150611d63565b5090565b508054611d0090612798565b6000825580601f10611d125750611672565b601f0160209004906000526020600020908101906116729190611d63565b60405180608001604052806000815260200160006001600160a01b03168152602001606081526020016000151581525090565b5b80821115611cf05760008155600101611d64565b80356001600160a01b038116811461036957600080fd5b600082601f830112611d9f578081fd5b813567ffffffffffffffff80821115611dba57611dba61282e565b604051601f8301601f191681016020018281118282101715611dde57611dde61282e565b604052828152848301602001861015611df5578384fd5b82602086016020830137918201602001929092529392505050565b600060208284031215611e21578081fd5b6119ed82611d78565b60008060408385031215611e3c578081fd5b611e4583611d78565b9150611e5360208401611d78565b90509250929050565b600080600060608486031215611e70578081fd5b611e7984611d78565b9250611e8760208501611d78565b9150604084013590509250925092565b60008060408385031215611ea9578182fd5b611eb283611d78565b915060208301358015158114611ec6578182fd5b809150509250929050565b60008060408385031215611ee3578182fd5b611eec83611d78565b9150602083013567ffffffffffffffff811115611f07578182fd5b611f1385828601611d8f565b9150509250929050565b60008060408385031215611f2f578182fd5b611f3883611d78565b946020939093013593505050565b600060208284031215611f57578081fd5b81356001600160e01b0319811681146119ed578182fd5b600060208284031215611f7f578081fd5b813567ffffffffffffffff811115611f95578182fd5b6113a984828501611d8f565b600060208284031215611fb2578081fd5b5035919050565b60008151808452611fd1816020860160208601612768565b601f01601f19169290920160200192915050565b60008151835260018060a01b0360208301511660208401526040820151608060408501526120166080850182611fb9565b6060938401511515949093019390935250919050565b6000835161203e818460208801612768565b835190830190612052818360208801612768565b01949350505050565b6001600160a01b0391909116815260200190565b6000602080830181845280855180835260408601915060408482028701019250838701855b828110156120c257603f198886030184526120b0858351611fe5565b94509285019290850190600101612094565b5092979650505050505050565b901515815260200190565b6000602082526119ed6020830184611fb9565b6020808252601b908201527f4552433732313a20617070726f76652069732064697361626c65640000000000604082015260600190565b602080825260159082015274111959dc995948185b1c9958591e481a5cdcdd5959605a1b604082015260600190565b6020808252601a908201527f546f6b656e205552492063616e6e6f7420626520656d70747921000000000000604082015260600190565b602080825260119082015270111959dc9959481b9bdd081a5cdcdd5959607a1b604082015260600190565b60208082526025908201527f4552433732313a207472616e736665722066726f6d20696e636f72726563742060408201526437bbb732b960d91b606082015260800190565b6020808252601c908201527f4552433732313a20746f6b656e20616c7265616479206d696e74656400000000604082015260600190565b6020808252600c908201526b2737ba1030b71037bbb732b960a11b604082015260600190565b60208082526024908201527f4552433732313a207472616e7366657220746f20746865207a65726f206164646040820152637265737360e01b606082015260800190565b602080825260149082015273151bdad95b88191bd95cc81b9bdd08195e1a5cdd60621b604082015260600190565b6020808252602c908201527f4552433732313a206f70657261746f7220717565727920666f72206e6f6e657860408201526b34b9ba32b73a103a37b5b2b760a11b606082015260800190565b6020808252602a908201527f4552433732313a2062616c616e636520717565727920666f7220746865207a65604082015269726f206164647265737360b01b606082015260800190565b60208082526029908201527f4552433732313a206f776e657220717565727920666f72206e6f6e657869737460408201526832b73a103a37b5b2b760b91b606082015260800190565b6020808252602e908201527f45524337323155524953746f726167653a2055524920736574206f66206e6f6e60408201526d32bc34b9ba32b73a103a37b5b2b760911b606082015260800190565b6020808252818101527f4552433732313a206d696e7420746f20746865207a65726f2061646472657373604082015260600190565b60208082526031908201527f45524337323155524953746f726167653a2055524920717565727920666f72206040820152703737b732bc34b9ba32b73a103a37b5b2b760791b606082015260800190565b6020808252602c908201527f4552433732313a20617070726f76656420717565727920666f72206e6f6e657860408201526b34b9ba32b73a103a37b5b2b760a11b606082015260800190565b60208082526018908201527f4465677265652072657175657374206e6f7420666f756e640000000000000000604082015260600190565b6020808252602f908201527f4552433732314d657461646174613a2055524920717565727920666f72206e6f60408201526e3732bc34b9ba32b73a103a37b5b2b760891b606082015260800190565b60208082526032908201527f4e6f6e5472616e736665727261626c65546f6b656e3a20545255454944206973604082015271206e6f6e207472616e736665727261626c6560701b606082015260800190565b60208082526019908201527f44656772656520616c7265616479207265717565737465642100000000000000604082015260600190565b60208082526031908201527f4552433732313a207472616e736665722063616c6c6572206973206e6f74206f6040820152701ddb995c881b9bdc88185c1c1c9bdd9959607a1b606082015260800190565b60208082526025908201527f4552433732313a20736574417070726f76616c466f72416c6c2069732064697360408201526418589b195960da1b606082015260800190565b60208082526017908201527f44656772656520616c726561647920636c61696d656421000000000000000000604082015260600190565b6020808252600e908201526d139bdd08185d5d1a1bdc9a5e995960921b604082015260600190565b6000602082526119ed6020830184611fe5565b90815260200190565b8481526001600160a01b038416602082015260806040820181905260009061271290830185611fb9565b9050821515606083015295945050505050565b6000821982111561273857612738612802565b500190565b60008261274c5761274c612818565b500490565b60008282101561276357612763612802565b500390565b60005b8381101561278357818101518382015260200161276b565b83811115612792576000848401525b50505050565b6002810460018216806127ac57607f821691505b602082108114156127cd57634e487b7160e01b600052602260045260246000fd5b50919050565b60006000198214156127e7576127e7612802565b5060010190565b6000826127fd576127fd612818565b500690565b634e487b7160e01b600052601160045260246000fd5b634e487b7160e01b600052601260045260246000fd5b634e487b7160e01b600052604160045260246000fdfea26469706673582212206c7f094c2d161601a59ac28fb900409338ec8f3bbfa9c9185b5b19869d21b2a764736f6c63430008000033",
  "linkReferences": {},
  "deployedLinkReferences": {}
}