{
  "_format": "hh-sol-artifact-1",
  "contractName": "UniversityDegree",
  "sourceName": "contracts/UniversityDegree.sol",
  "abi": [
    {
      "inputs": [],
      "stateMutability": "nonpayable",
      "type": "constructor"
    },
    {
      "anonymous": false,
      "inputs": [
        {
          "indexed": true,
          "internalType": "address",
          "name": "owner",
          "type": "address"
        },
        {
          "indexed": true,
          "internalType": "address",
          "name": "approved",
          "type": "address"
        },
        {
          "indexed": true,
          "internalType": "uint256",
          "name": "tokenId",
          "type": "uint256"
        }
      ],
      "name": "Approval",
      "type": "event"
    },
    {
      "anonymous": false,
      "inputs": [
        {
          "indexed": true,
          "internalType": "address",
          "name": "owner",
          "type": "address"
        },
        {
          "indexed": true,
          "internalType": "address",
          "name": "operator",
          "type": "address"
        },
        {
          "indexed": false,
          "internalType": "bool",
          "name": "approved",
          "type": "bool"
        }
      ],
      "name": "ApprovalForAll",
      "type": "event"
    },
    {
      "anonymous": false,
      "inputs": [
        {
          "indexed": true,
          "internalType": "uint256",
          "name": "tokenId",
          "type": "uint256"
        },
        {
          "indexed": true,
          "internalType": "address",
          "name": "to",
          "type": "address"
        },
        {
          "indexed": false,
          "internalType": "string",
          "name": "tokenURI",
          "type": "string"
        }
      ],
      "name": "DegreeBurned",
      "type": "event"
    },
    {
      "anonymous": false,
      "inputs": [
        {
          "indexed": true,
          "internalType": "address",
          "name": "to",
          "type": "address"
        },
        {
          "indexed": false,
          "internalType": "string",
          "name": "tokenURI",
          "type": "string"
        }
      ],
      "name": "DegreeIssued",
      "type": "event"
    },
    {
      "anonymous": false,
      "inputs": [
        {
          "indexed": true,
          "internalType": "address",
          "name": "from",
          "type": "address"
        },
        {
          "indexed": true,
          "internalType": "address",
          "name": "to",
          "type": "address"
        },
        {
          "indexed": true,
          "internalType": "uint256",
          "name": "tokenId",
          "type": "uint256"
        }
      ],
      "name": "Transfer",
      "type": "event"
    },
    {
      "inputs": [
        {
          "internalType": "address",
          "name": "newOwner",
          "type": "address"
        }
      ],
      "name": "addOwner",
      "outputs": [],
      "stateMutability": "nonpayable",
      "type": "function"
    },
    {
      "inputs": [
        {
          "internalType": "address",
          "name": "to",
          "type": "address"
        },
        {
          "internalType": "uint256",
          "name": "tokenId",
          "type": "uint256"
        }
      ],
      "name": "approve",
      "outputs": [],
      "stateMutability": "nonpayable",
      "type": "function"
    },
    {
      "inputs": [
        {
          "internalType": "address",
          "name": "owner",
          "type": "address"
        }
      ],
      "name": "balanceOf",
      "outputs": [
        {
          "internalType": "uint256",
          "name": "",
          "type": "uint256"
        }
      ],
      "stateMutability": "view",
      "type": "function"
    },
    {
      "inputs": [
        {
          "internalType": "uint256",
          "name": "tokenId",
          "type": "uint256"
        }
      ],
      "name": "burnDegree",
      "outputs": [],
      "stateMutability": "nonpayable",
      "type": "function"
    },
    {
      "inputs": [
        {
          "internalType": "address",
          "name": "person",
          "type": "address"
        }
      ],
      "name": "checkDegreeOfPerson",
      "outputs": [
        {
          "components": [
            {
              "internalType": "uint256",
              "name": "tokenId",
              "type": "uint256"
            },
            {
              "internalType": "address",
              "name": "person",
              "type": "address"
            },
            {
              "internalType": "string",
              "name": "tokenURI",
              "type": "string"
            },
            {
              "internalType": "bool",
              "name": "issued",
              "type": "bool"
            }
          ],
          "internalType": "struct UniversityDegree.Degree",
          "name": "",
          "type": "tuple"
        }
      ],
      "stateMutability": "view",
      "type": "function"
    },
    {
      "inputs": [
        {
          "internalType": "address",
          "name": "person",
          "type": "address"
        }
      ],
      "name": "checkRequestOfPerson",
      "outputs": [
        {
          "internalType": "bool",
          "name": "",
          "type": "bool"
        }
      ],
      "stateMutability": "view",
      "type": "function"
    },
    {
      "inputs": [],
      "name": "getAllClaimedDegrees",
      "outputs": [
        {
          "components": [
            {
              "internalType": "uint256",
              "name": "tokenId",
              "type": "uint256"
            },
            {
              "internalType": "address",
              "name": "person",
              "type": "address"
            },
            {
              "internalType": "string",
              "name": "tokenURI",
              "type": "string"
            },
            {
              "internalType": "bool",
              "name": "issued",
              "type": "bool"
            }
          ],
          "internalType": "struct UniversityDegree.Degree[]",
          "name": "",
          "type": "tuple[]"
        }
      ],
      "stateMutability": "view",
      "type": "function"
    },
    {
      "inputs": [
        {
          "internalType": "uint256",
          "name": "tokenId",
          "type": "uint256"
        }
      ],
      "name": "getApproved",
      "outputs": [
        {
          "internalType": "address",
          "name": "",
          "type": "address"
        }
      ],
      "stateMutability": "view",
      "type": "function"
    },
    {
      "inputs": [],
      "name": "getNotClaimedDegrees",
      "outputs": [
        {
          "components": [
            {
              "internalType": "uint256",
              "name": "tokenId",
              "type": "uint256"
            },
            {
              "internalType": "address",
              "name": "person",
              "type": "address"
            },
            {
              "internalType": "string",
              "name": "tokenURI",
              "type": "string"
            },
            {
              "internalType": "bool",
              "name": "issued",
              "type": "bool"
            }
          ],
          "internalType": "struct UniversityDegree.Degree[]",
          "name": "",
          "type": "tuple[]"
        }
      ],
      "stateMutability": "view",
      "type": "function"
    },
    {
      "inputs": [
        {
          "internalType": "address",
          "name": "person",
          "type": "address"
        }
      ],
      "name": "getTokenIdFromAddress",
      "outputs": [
        {
          "internalType": "uint256",
          "name": "",
          "type": "uint256"
        }
      ],
      "stateMutability": "view",
      "type": "function"
    },
    {
      "inputs": [
        {
          "internalType": "address",
          "name": "owner",
          "type": "address"
        },
        {
          "internalType": "address",
          "name": "operator",
          "type": "address"
        }
      ],
      "name": "isApprovedForAll",
      "outputs": [
        {
          "internalType": "bool",
          "name": "",
          "type": "bool"
        }
      ],
      "stateMutability": "view",
      "type": "function"
    },
    {
      "inputs": [
        {
          "internalType": "address",
          "name": "person",
          "type": "address"
        }
      ],
      "name": "isBurned",
      "outputs": [
        {
          "internalType": "bool",
          "name": "",
          "type": "bool"
        }
      ],
      "stateMutability": "view",
      "type": "function"
    },
    {
      "inputs": [
        {
          "internalType": "address",
          "name": "person",
          "type": "address"
        }
      ],
      "name": "isOwner",
      "outputs": [
        {
          "internalType": "bool",
          "name": "",
          "type": "bool"
        }
      ],
      "stateMutability": "view",
      "type": "function"
    },
    {
      "inputs": [
        {
          "internalType": "address",
          "name": "to",
          "type": "address"
        },
        {
          "internalType": "string",
          "name": "tokenURI",
          "type": "string"
        }
      ],
      "name": "issueDegree",
      "outputs": [],
      "stateMutability": "nonpayable",
      "type": "function"
    },
    {
      "inputs": [],
      "name": "name",
      "outputs": [
        {
          "internalType": "string",
          "name": "",
          "type": "string"
        }
      ],
      "stateMutability": "view",
      "type": "function"
    },
    {
      "inputs": [
        {
          "internalType": "uint256",
          "name": "tokenId",
          "type": "uint256"
        }
      ],
      "name": "ownerOf",
      "outputs": [
        {
          "internalType": "address",
          "name": "",
          "type": "address"
        }
      ],
      "stateMutability": "view",
      "type": "function"
    },
    {
      "inputs": [
        {
          "internalType": "uint256",
          "name": "",
          "type": "uint256"
        }
      ],
      "name": "owners",
      "outputs": [
        {
          "internalType": "address",
          "name": "",
          "type": "address"
        }
      ],
      "stateMutability": "view",
      "type": "function"
    },
    {
      "inputs": [
        {
          "internalType": "address",
          "name": "",
          "type": "address"
        }
      ],
      "name": "personToDegree",
      "outputs": [
        {
          "internalType": "uint256",
          "name": "tokenId",
          "type": "uint256"
        },
        {
          "internalType": "address",
          "name": "person",
          "type": "address"
        },
        {
          "internalType": "string",
          "name": "tokenURI",
          "type": "string"
        },
        {
          "internalType": "bool",
          "name": "issued",
          "type": "bool"
        }
      ],
      "stateMutability": "view",
      "type": "function"
    },
    {
      "inputs": [
        {
          "internalType": "string",
          "name": "tokenURI",
          "type": "string"
        }
      ],
      "name": "requestDegree",
      "outputs": [],
      "stateMutability": "nonpayable",
      "type": "function"
    },
    {
      "inputs": [
        {
          "internalType": "address",
          "name": "operator",
          "type": "address"
        },
        {
          "internalType": "bool",
          "name": "approved",
          "type": "bool"
        }
      ],
      "name": "setApprovalForAll",
      "outputs": [],
      "stateMutability": "nonpayable",
      "type": "function"
    },
    {
      "inputs": [
        {
          "internalType": "bytes4",
          "name": "interfaceId",
          "type": "bytes4"
        }
      ],
      "name": "supportsInterface",
      "outputs": [
        {
          "internalType": "bool",
          "name": "",
          "type": "bool"
        }
      ],
      "stateMutability": "view",
      "type": "function"
    },
    {
      "inputs": [],
      "name": "symbol",
      "outputs": [
        {
          "internalType": "string",
          "name": "",
          "type": "string"
        }
      ],
      "stateMutability": "view",
      "type": "function"
    },
    {
      "inputs": [
        {
          "internalType": "uint256",
          "name": "tokenId",
          "type": "uint256"
        }
      ],
      "name": "tokenURI",
      "outputs": [
        {
          "internalType": "string",
          "name": "",
          "type": "string"
        }
      ],
      "stateMutability": "view",
      "type": "function"
    },
    {
      "inputs": [
        {
          "internalType": "address",
          "name": "from",
          "type": "address"
        },
        {
          "internalType": "address",
          "name": "to",
          "type": "address"
        },
        {
          "internalType": "uint256",
          "name": "tokenId",
          "type": "uint256"
        }
      ],
      "name": "transferFrom",
      "outputs": [],
      "stateMutability": "nonpayable",
      "type": "function"
    }
  ],
  "bytecode": "0x60806040523480156200001157600080fd5b506040805180820182526006815265151c9d59525160d21b60208083019182528351808501909452600384526215125160ea1b9084015281519192916200005b91600091620000e7565b50805162000071906001906020840190620000e7565b5050600880546001818101835560008390527ff3f7a9fe364faab93b216da50a3214154f22a0a2b415b23a84c8169e8b636ee391820180546001600160a01b031990811633179091558354918201909355018054909116735363432541bf9838b74ad922826d74540cb0578817905550620001ca565b828054620000f5906200018d565b90600052602060002090601f01602090048101928262000119576000855562000164565b82601f106200013457805160ff191683800117855562000164565b8280016001018555821562000164579182015b828111156200016457825182559160200191906001019062000147565b506200017292915062000176565b5090565b5b8082111562000172576000815560010162000177565b600281046001821680620001a257607f821691505b60208210811415620001c457634e487b7160e01b600052602260045260246000fd5b50919050565b61274680620001da6000396000f3fe608060405234801561001057600080fd5b50600436106101585760003560e01c80636352211e116100c3578063b5d473da1161007c578063b5d473da146102e3578063b670f96814610303578063c542f2ac14610316578063c87b56dd14610329578063e59f92ff1461033c578063e985e9c51461034f57610158565b80636352211e1461027c5780636ae116f81461028f5780637065cb48146102a257806370a08231146102b557806395d89b41146102c8578063a22cb465146102d057610158565b806317a4889d1161011557806317a4889d1461020357806323b872dd146102165780632f54bf6e1461022957806337f902f01461023c57806350e561b81461025f5780635e7531dc1461027457610158565b806301ffc9a71461015d5780630206e70b14610186578063025e7c27146101a657806306fdde03146101c6578063081812fc146101db578063095ea7b3146101ee575b600080fd5b61017061016b366004611e95565b610362565b60405161017d919061201e565b60405180910390f35b610199610194366004611d5f565b6103aa565b60405161017d91906125ab565b6101b96101b4366004611ef0565b6103c5565b60405161017d9190611faa565b6101ce6103ef565b60405161017d9190612029565b6101b96101e9366004611ef0565b610481565b6102016101fc366004611e6c565b6104cd565b005b610201610211366004611ebd565b610565565b610201610224366004611dab565b6106c8565b610170610237366004611d5f565b610700565b61024f61024a366004611d5f565b610773565b60405161017d94939291906125b4565b610267610831565b60405161017d9190611fbe565b610267610af0565b6101b961028a366004611ef0565b610d5d565b61017061029d366004611d5f565b610d92565b6102016102b0366004611d5f565b610db0565b6101996102c3366004611d5f565b610e87565b6101ce610ecb565b6102016102de366004611de6565b610eda565b6102f66102f1366004611d5f565b610ef0565b60405161017d9190612598565b610170610311366004611d5f565b610fdd565b610201610324366004611e20565b610ffb565b6101ce610337366004611ef0565b6111be565b61020161034a366004611ef0565b6112df565b61017061035d366004611d79565b6114b9565b60006001600160e01b03198216637aa5391d60e01b148061039357506001600160e01b03198216635b5e139f60e01b145b806103a257506103a2826114e7565b90505b919050565b6001600160a01b031660009081526009602052604090205490565b600881815481106103d557600080fd5b6000918252602090912001546001600160a01b0316905081565b6060600080546103fe90612664565b80601f016020809104026020016040519081016040528092919081815260200182805461042a90612664565b80156104775780601f1061044c57610100808354040283529160200191610477565b820191906000526020600020905b81548152906001019060200180831161045a57829003601f168201915b5050505050905090565b600061048c82611500565b6104b15760405162461bcd60e51b81526004016104a8906123fd565b60405180910390fd5b506000908152600460205260409020546001600160a01b031690565b60006104d882610d5d565b9050806001600160a01b0316836001600160a01b0316141561050c5760405162461bcd60e51b81526004016104a8906124cf565b806001600160a01b031661051e61151d565b6001600160a01b0316148061053a575061053a8161035d61151d565b6105565760405162461bcd60e51b81526004016104a890612239565b6105608383611521565b505050565b336000908152600b602052604090205460ff16156105955760405162461bcd60e51b81526004016104a890612498565b60008151116105b65760405162461bcd60e51b81526004016104a89061206b565b3360009081526009602052604090206003015460ff16156105e95760405162461bcd60e51b81526004016104a890612561565b6105f3600761158f565b60006105ff6007611598565b6040805160808101825282815233602080830182815283850188815260006060860181905293845260098352949092208351815591516001830180546001600160a01b0319166001600160a01b039092169190911790559251805194955091939092610672926002850192910190611bc3565b50606091909101516003909101805491151560ff19928316179055336000818152600b602090815260408083208054909516600117909455938152600a909352912080546001600160a01b031916909117905550565b6106d96106d361151d565b8261159c565b6106f55760405162461bcd60e51b81526004016104a890612510565b610560838383611620565b6000805b60085481101561076a576008818154811061072f57634e487b7160e01b600052603260045260246000fd5b6000918252602090912001546001600160a01b03848116911614156107585760019150506103a5565b806107628161269f565b915050610704565b50600092915050565b60096020526000908152604090208054600182015460028301805492936001600160a01b03909216926107a590612664565b80601f01602080910402602001604051908101604052809291908181526020018280546107d190612664565b801561081e5780601f106107f35761010080835404028352916020019161081e565b820191906000526020600020905b81548152906001019060200180831161080157829003601f168201915b5050506003909301549192505060ff1684565b6060600061083f6007611598565b9050600060015b8281116108da576000818152600a60205260409020546001600160a01b0316801580159061088f57506001600160a01b03811660009081526009602052604090206003015460ff165b80156108b457506001600160a01b0381166000908152600c602052604090205460ff16155b156108c757826108c38161269f565b9350505b50806108d28161269f565b915050610846565b5060008167ffffffffffffffff81111561090457634e487b7160e01b600052604160045260246000fd5b60405190808252806020026020018201604052801561093d57816020015b61092a611c47565b8152602001906001900390816109225790505b509050600060015b848111610ae6576000818152600a60205260409020546001600160a01b0316801580159061098e57506001600160a01b03811660009081526009602052604090206003015460ff165b80156109b357506001600160a01b0381166000908152600c602052604090205460ff16155b15610ad3576001600160a01b038082166000908152600960209081526040918290208251608081018452815481526001820154909416918401919091526002810180549192840191610a0490612664565b80601f0160208091040260200160405190810160405280929190818152602001828054610a3090612664565b8015610a7d5780601f10610a5257610100808354040283529160200191610a7d565b820191906000526020600020905b815481529060010190602001808311610a6057829003601f168201915b50505091835250506003919091015460ff1615156020909101528451859085908110610ab957634e487b7160e01b600052603260045260246000fd5b60200260200101819052508280610acf9061269f565b9350505b5080610ade8161269f565b915050610945565b5090935050505090565b60606000610afe6007611598565b9050600060015b828111610b75576000818152600a60205260409020546001600160a01b03168015801590610b4f57506001600160a01b03811660009081526009602052604090206003015460ff16155b15610b625782610b5e8161269f565b9350505b5080610b6d8161269f565b915050610b05565b5060008167ffffffffffffffff811115610b9f57634e487b7160e01b600052604160045260246000fd5b604051908082528060200260200182016040528015610bd857816020015b610bc5611c47565b815260200190600190039081610bbd5790505b509050600060015b848111610ae6576000818152600a60205260409020546001600160a01b03168015801590610c2a57506001600160a01b03811660009081526009602052604090206003015460ff16155b15610d4a576001600160a01b038082166000908152600960209081526040918290208251608081018452815481526001820154909416918401919091526002810180549192840191610c7b90612664565b80601f0160208091040260200160405190810160405280929190818152602001828054610ca790612664565b8015610cf45780601f10610cc957610100808354040283529160200191610cf4565b820191906000526020600020905b815481529060010190602001808311610cd757829003601f168201915b50505091835250506003919091015460ff1615156020909101528451859085908110610d3057634e487b7160e01b600052603260045260246000fd5b60200260200101819052508280610d469061269f565b9350505b5080610d558161269f565b915050610be0565b6000818152600260205260408120546001600160a01b0316806103a25760405162461bcd60e51b81526004016104a8906122e0565b6001600160a01b03166000908152600b602052604090205460ff1690565b6000805b600854811015610e165760088181548110610ddf57634e487b7160e01b600052603260045260246000fd5b6000918252602090912001546001600160a01b0316331415610e045760019150610e16565b80610e0e8161269f565b915050610db4565b5080610e345760405162461bcd60e51b81526004016104a89061211e565b50600880546001810182556000919091527ff3f7a9fe364faab93b216da50a3214154f22a0a2b415b23a84c8169e8b636ee30180546001600160a01b0319166001600160a01b0392909216919091179055565b60006001600160a01b038216610eaf5760405162461bcd60e51b81526004016104a890612296565b506001600160a01b031660009081526003602052604090205490565b6060600180546103fe90612664565b610eec610ee561151d565b8383611753565b5050565b610ef8611c47565b6001600160a01b038083166000908152600960209081526040918290208251608081018452815481526001820154909416918401919091526002810180549192840191610f4490612664565b80601f0160208091040260200160405190810160405280929190818152602001828054610f7090612664565b8015610fbd5780601f10610f9257610100808354040283529160200191610fbd565b820191906000526020600020905b815481529060010190602001808311610fa057829003601f168201915b50505091835250506003919091015460ff16151560209091015292915050565b6001600160a01b03166000908152600c602052604090205460ff1690565b6000805b600854811015611061576008818154811061102a57634e487b7160e01b600052603260045260246000fd5b6000918252602090912001546001600160a01b031633141561104f5760019150611061565b806110598161269f565b915050610fff565b508061107f5760405162461bcd60e51b81526004016104a89061211e565b6001600160a01b03831660009081526009602052604090206003015460ff16156110bb5760405162461bcd60e51b81526004016104a89061203c565b6110c5600761158f565b60006110d16007611598565b90506110dd84826117f6565b6110e781846118dd565b604080516080810182528281526001600160a01b0386811660208084018281528486018981526001606087018190526000948552600984529690932085518155905195810180546001600160a01b03191696909416959095179092555180519293926111599260028501920190611bc3565b50606091909101516003909101805460ff19169115159190911790556040516001600160a01b038516907f77aa2104a5847fc7effd20305146555291d6e4a9cf31d06543eceabc88bda8b3906111b0908690612029565b60405180910390a250505050565b60606111c982611500565b6111e55760405162461bcd60e51b81526004016104a8906123ac565b600082815260066020526040812080546111fe90612664565b80601f016020809104026020016040519081016040528092919081815260200182805461122a90612664565b80156112775780601f1061124c57610100808354040283529160200191611277565b820191906000526020600020905b81548152906001019060200180831161125a57829003601f168201915b505050505090506000611288611921565b905080516000141561129c575090506103a5565b8151156112ce5780826040516020016112b6929190611f7b565b604051602081830303815290604052925050506103a5565b6112d784611933565b949350505050565b6000805b600854811015611345576008818154811061130e57634e487b7160e01b600052603260045260246000fd5b6000918252602090912001546001600160a01b03163314156113335760019150611345565b8061133d8161269f565b9150506112e3565b50806113635760405162461bcd60e51b81526004016104a89061211e565b600061136e83610d5d565b90506001600160a01b0381166113965760405162461bcd60e51b81526004016104a8906121bf565b6000838152600a60209081526040808320546001600160a01b03168084526009909252822060020180549192916113cc90612664565b80601f01602080910402602001604051908101604052809291908181526020018280546113f890612664565b80156114455780601f1061141a57610100808354040283529160200191611445565b820191906000526020600020905b81548152906001019060200180831161142857829003601f168201915b50505050509050611455856119b6565b6001600160a01b0382166000818152600c602052604090819020805460ff191660011790555186907f2bf9868dac278b225f484411e274ff3560e7cab5729b5edd79d77a81bf503016906114aa908590612029565b60405180910390a35050505050565b6001600160a01b03918216600090815260056020908152604080832093909416825291909152205460ff1690565b6001600160e01b031981166301ffc9a760e01b14919050565b6000908152600260205260409020546001600160a01b0316151590565b3390565b600081815260046020526040902080546001600160a01b0319166001600160a01b038416908117909155819061155682610d5d565b6001600160a01b03167f8c5be1e5ebec7d5bd14f71427d1e84f3dd0314c0f7b2291e5b200ac8c7c3b92560405160405180910390a45050565b80546001019055565b5490565b60006115a782611500565b6115c35760405162461bcd60e51b81526004016104a8906121ed565b60006115ce83610d5d565b9050806001600160a01b0316846001600160a01b031614806115f557506115f581856114b9565b806112d75750836001600160a01b031661160e84610481565b6001600160a01b031614949350505050565b826001600160a01b031661163382610d5d565b6001600160a01b0316146116595760405162461bcd60e51b81526004016104a8906120a2565b6001600160a01b03821661167f5760405162461bcd60e51b81526004016104a890612144565b61168a838383610560565b611695600082611521565b6001600160a01b03831660009081526003602052604081208054600192906116be90849061261d565b90915550506001600160a01b03821660009081526003602052604081208054600192906116ec9084906125f1565b909155505060008181526002602052604080822080546001600160a01b0319166001600160a01b0386811691821790925591518493918716917fddf252ad1be2c89b69c2b068fc378daa952ba7f163c4a11628f55a4df523b3ef91a4610560838383610560565b816001600160a01b0316836001600160a01b031614156117855760405162461bcd60e51b81526004016104a890612188565b6001600160a01b0383811660008181526005602090815260408083209487168084529490915290819020805460ff1916851515179055517f17307eab39ab6107e8899845ad3d59bd9653f200f220920489ca2b5937696c31906117e990859061201e565b60405180910390a3505050565b6001600160a01b03821661181c5760405162461bcd60e51b81526004016104a890612377565b61182581611500565b156118425760405162461bcd60e51b81526004016104a8906120e7565b61184e60008383610560565b6001600160a01b03821660009081526003602052604081208054600192906118779084906125f1565b909155505060008181526002602052604080822080546001600160a01b0319166001600160a01b03861690811790915590518392907fddf252ad1be2c89b69c2b068fc378daa952ba7f163c4a11628f55a4df523b3ef908290a4610eec60008383610560565b6118e682611500565b6119025760405162461bcd60e51b81526004016104a890612329565b6000828152600660209081526040909120825161056092840190611bc3565b60408051602081019091526000815290565b606061193e82611500565b61195a5760405162461bcd60e51b81526004016104a890612449565b6000611964611921565b9050600081511161198457604051806020016040528060008152506119af565b8061198e846119f9565b60405160200161199f929190611f7b565b6040516020818303038152906040525b9392505050565b6119bf81611b14565b600081815260066020526040902080546119d890612664565b1590506119f65760008181526006602052604081206119f691611c7a565b50565b606081611a1e57506040805180820190915260018152600360fc1b60208201526103a5565b8160005b8115611a485780611a328161269f565b9150611a419050600a83612609565b9150611a22565b60008167ffffffffffffffff811115611a7157634e487b7160e01b600052604160045260246000fd5b6040519080825280601f01601f191660200182016040528015611a9b576020820181803683370190505b5090505b84156112d757611ab060018361261d565b9150611abd600a866126ba565b611ac89060306125f1565b60f81b818381518110611aeb57634e487b7160e01b600052603260045260246000fd5b60200101906001600160f81b031916908160001a905350611b0d600a86612609565b9450611a9f565b6000611b1f82610d5d565b9050611b2d81600084610560565b611b38600083611521565b6001600160a01b0381166000908152600360205260408120805460019290611b6190849061261d565b909155505060008281526002602052604080822080546001600160a01b0319169055518391906001600160a01b038416907fddf252ad1be2c89b69c2b068fc378daa952ba7f163c4a11628f55a4df523b3ef908390a4610eec81600084610560565b828054611bcf90612664565b90600052602060002090601f016020900481019282611bf15760008555611c37565b82601f10611c0a57805160ff1916838001178555611c37565b82800160010185558215611c37579182015b82811115611c37578251825591602001919060010190611c1c565b50611c43929150611cb2565b5090565b60405180608001604052806000815260200160006001600160a01b03168152602001606081526020016000151581525090565b508054611c8690612664565b6000825580601f10611c9857506119f6565b601f0160209004906000526020600020908101906119f691905b5b80821115611c435760008155600101611cb3565b80356001600160a01b03811681146103a557600080fd5b600082601f830112611cee578081fd5b813567ffffffffffffffff80821115611d0957611d096126fa565b604051601f8301601f191681016020018281118282101715611d2d57611d2d6126fa565b604052828152848301602001861015611d44578384fd5b82602086016020830137918201602001929092529392505050565b600060208284031215611d70578081fd5b6119af82611cc7565b60008060408385031215611d8b578081fd5b611d9483611cc7565b9150611da260208401611cc7565b90509250929050565b600080600060608486031215611dbf578081fd5b611dc884611cc7565b9250611dd660208501611cc7565b9150604084013590509250925092565b60008060408385031215611df8578182fd5b611e0183611cc7565b915060208301358015158114611e15578182fd5b809150509250929050565b60008060408385031215611e32578182fd5b611e3b83611cc7565b9150602083013567ffffffffffffffff811115611e56578182fd5b611e6285828601611cde565b9150509250929050565b60008060408385031215611e7e578182fd5b611e8783611cc7565b946020939093013593505050565b600060208284031215611ea6578081fd5b81356001600160e01b0319811681146119af578182fd5b600060208284031215611ece578081fd5b813567ffffffffffffffff811115611ee4578182fd5b6112d784828501611cde565b600060208284031215611f01578081fd5b5035919050565b60008151808452611f20816020860160208601612634565b601f01601f19169290920160200192915050565b60008151835260018060a01b036020830151166020840152604082015160806040850152611f656080850182611f08565b6060938401511515949093019390935250919050565b60008351611f8d818460208801612634565b835190830190611fa1818360208801612634565b01949350505050565b6001600160a01b0391909116815260200190565b6000602080830181845280855180835260408601915060408482028701019250838701855b8281101561201157603f19888603018452611fff858351611f34565b94509285019290850190600101611fe3565b5092979650505050505050565b901515815260200190565b6000602082526119af6020830184611f08565b602080825260159082015274111959dc995948185b1c9958591e481a5cdcdd5959605a1b604082015260600190565b6020808252601a908201527f546f6b656e205552492063616e6e6f7420626520656d70747921000000000000604082015260600190565b60208082526025908201527f4552433732313a207472616e736665722066726f6d20696e636f72726563742060408201526437bbb732b960d91b606082015260800190565b6020808252601c908201527f4552433732313a20746f6b656e20616c7265616479206d696e74656400000000604082015260600190565b6020808252600c908201526b2737ba1030b71037bbb732b960a11b604082015260600190565b60208082526024908201527f4552433732313a207472616e7366657220746f20746865207a65726f206164646040820152637265737360e01b606082015260800190565b60208082526019908201527f4552433732313a20617070726f766520746f2063616c6c657200000000000000604082015260600190565b602080825260149082015273151bdad95b88191bd95cc81b9bdd08195e1a5cdd60621b604082015260600190565b6020808252602c908201527f4552433732313a206f70657261746f7220717565727920666f72206e6f6e657860408201526b34b9ba32b73a103a37b5b2b760a11b606082015260800190565b60208082526038908201527f4552433732313a20617070726f76652063616c6c6572206973206e6f74206f7760408201527f6e6572206e6f7220617070726f76656420666f7220616c6c0000000000000000606082015260800190565b6020808252602a908201527f4552433732313a2062616c616e636520717565727920666f7220746865207a65604082015269726f206164647265737360b01b606082015260800190565b60208082526029908201527f4552433732313a206f776e657220717565727920666f72206e6f6e657869737460408201526832b73a103a37b5b2b760b91b606082015260800190565b6020808252602e908201527f45524337323155524953746f726167653a2055524920736574206f66206e6f6e60408201526d32bc34b9ba32b73a103a37b5b2b760911b606082015260800190565b6020808252818101527f4552433732313a206d696e7420746f20746865207a65726f2061646472657373604082015260600190565b60208082526031908201527f45524337323155524953746f726167653a2055524920717565727920666f72206040820152703737b732bc34b9ba32b73a103a37b5b2b760791b606082015260800190565b6020808252602c908201527f4552433732313a20617070726f76656420717565727920666f72206e6f6e657860408201526b34b9ba32b73a103a37b5b2b760a11b606082015260800190565b6020808252602f908201527f4552433732314d657461646174613a2055524920717565727920666f72206e6f60408201526e3732bc34b9ba32b73a103a37b5b2b760891b606082015260800190565b60208082526019908201527f44656772656520616c7265616479207265717565737465642100000000000000604082015260600190565b60208082526021908201527f4552433732313a20617070726f76616c20746f2063757272656e74206f776e656040820152603960f91b606082015260800190565b60208082526031908201527f4552433732313a207472616e736665722063616c6c6572206973206e6f74206f6040820152701ddb995c881b9bdc88185c1c1c9bdd9959607a1b606082015260800190565b60208082526017908201527f44656772656520616c726561647920636c61696d656421000000000000000000604082015260600190565b6000602082526119af6020830184611f34565b90815260200190565b8481526001600160a01b03841660208201526080604082018190526000906125de90830185611f08565b9050821515606083015295945050505050565b60008219821115612604576126046126ce565b500190565b600082612618576126186126e4565b500490565b60008282101561262f5761262f6126ce565b500390565b60005b8381101561264f578181015183820152602001612637565b8381111561265e576000848401525b50505050565b60028104600182168061267857607f821691505b6020821081141561269957634e487b7160e01b600052602260045260246000fd5b50919050565b60006000198214156126b3576126b36126ce565b5060010190565b6000826126c9576126c96126e4565b500690565b634e487b7160e01b600052601160045260246000fd5b634e487b7160e01b600052601260045260246000fd5b634e487b7160e01b600052604160045260246000fdfea2646970667358221220b13878eda320dec53790195e2878b7ecc232fc65978305a2d77d8e4e1313239564736f6c63430008000033",
  "linkReferences": {},
  "deployedLinkReferences": {}
}