{
  "_format": "hh-sol-artifact-1",
  "contractName": "UniversityDegree",
  "sourceName": "contracts/UniversityDegree.sol",
  "abi": [
    {
      "inputs": [],
      "stateMutability": "nonpayable",
      "type": "constructor"
    },
    {
      "anonymous": false,
      "inputs": [
        {
          "indexed": true,
          "internalType": "address",
          "name": "owner",
          "type": "address"
        },
        {
          "indexed": true,
          "internalType": "address",
          "name": "approved",
          "type": "address"
        },
        {
          "indexed": true,
          "internalType": "uint256",
          "name": "tokenId",
          "type": "uint256"
        }
      ],
      "name": "Approval",
      "type": "event"
    },
    {
      "anonymous": false,
      "inputs": [
        {
          "indexed": true,
          "internalType": "address",
          "name": "owner",
          "type": "address"
        },
        {
          "indexed": true,
          "internalType": "address",
          "name": "operator",
          "type": "address"
        },
        {
          "indexed": false,
          "internalType": "bool",
          "name": "approved",
          "type": "bool"
        }
      ],
      "name": "ApprovalForAll",
      "type": "event"
    },
    {
      "anonymous": false,
      "inputs": [
        {
          "indexed": true,
          "internalType": "uint256",
          "name": "tokenId",
          "type": "uint256"
        },
        {
          "indexed": true,
          "internalType": "address",
          "name": "to",
          "type": "address"
        },
        {
          "indexed": false,
          "internalType": "string",
          "name": "tokenURI",
          "type": "string"
        }
      ],
      "name": "DegreeBurned",
      "type": "event"
    },
    {
      "anonymous": false,
      "inputs": [
        {
          "indexed": true,
          "internalType": "address",
          "name": "to",
          "type": "address"
        },
        {
          "indexed": false,
          "internalType": "string",
          "name": "tokenURI",
          "type": "string"
        }
      ],
      "name": "DegreeIssued",
      "type": "event"
    },
    {
      "anonymous": false,
      "inputs": [
        {
          "indexed": true,
          "internalType": "address",
          "name": "from",
          "type": "address"
        },
        {
          "indexed": true,
          "internalType": "address",
          "name": "to",
          "type": "address"
        },
        {
          "indexed": true,
          "internalType": "uint256",
          "name": "tokenId",
          "type": "uint256"
        }
      ],
      "name": "Transfer",
      "type": "event"
    },
    {
      "inputs": [
        {
          "internalType": "address",
          "name": "to",
          "type": "address"
        },
        {
          "internalType": "uint256",
          "name": "tokenId",
          "type": "uint256"
        }
      ],
      "name": "approve",
      "outputs": [],
      "stateMutability": "nonpayable",
      "type": "function"
    },
    {
      "inputs": [
        {
          "internalType": "address",
          "name": "owner",
          "type": "address"
        }
      ],
      "name": "balanceOf",
      "outputs": [
        {
          "internalType": "uint256",
          "name": "",
          "type": "uint256"
        }
      ],
      "stateMutability": "view",
      "type": "function"
    },
    {
      "inputs": [
        {
          "internalType": "uint256",
          "name": "tokenId",
          "type": "uint256"
        }
      ],
      "name": "burnDegree",
      "outputs": [],
      "stateMutability": "nonpayable",
      "type": "function"
    },
    {
      "inputs": [
        {
          "internalType": "address",
          "name": "person",
          "type": "address"
        }
      ],
      "name": "checkDegreeOfPerson",
      "outputs": [
        {
          "components": [
            {
              "internalType": "uint256",
              "name": "tokenId",
              "type": "uint256"
            },
            {
              "internalType": "address",
              "name": "person",
              "type": "address"
            },
            {
              "internalType": "string",
              "name": "tokenURI",
              "type": "string"
            },
            {
              "internalType": "bool",
              "name": "issued",
              "type": "bool"
            }
          ],
          "internalType": "struct UniversityDegree.Degree",
          "name": "",
          "type": "tuple"
        }
      ],
      "stateMutability": "view",
      "type": "function"
    },
    {
      "inputs": [],
      "name": "getAllClaimedDegrees",
      "outputs": [
        {
          "components": [
            {
              "internalType": "uint256",
              "name": "tokenId",
              "type": "uint256"
            },
            {
              "internalType": "address",
              "name": "person",
              "type": "address"
            },
            {
              "internalType": "string",
              "name": "tokenURI",
              "type": "string"
            },
            {
              "internalType": "bool",
              "name": "issued",
              "type": "bool"
            }
          ],
          "internalType": "struct UniversityDegree.Degree[]",
          "name": "",
          "type": "tuple[]"
        }
      ],
      "stateMutability": "view",
      "type": "function"
    },
    {
      "inputs": [
        {
          "internalType": "uint256",
          "name": "tokenId",
          "type": "uint256"
        }
      ],
      "name": "getApproved",
      "outputs": [
        {
          "internalType": "address",
          "name": "",
          "type": "address"
        }
      ],
      "stateMutability": "view",
      "type": "function"
    },
    {
      "inputs": [],
      "name": "getNotClaimedDegrees",
      "outputs": [
        {
          "components": [
            {
              "internalType": "uint256",
              "name": "tokenId",
              "type": "uint256"
            },
            {
              "internalType": "address",
              "name": "person",
              "type": "address"
            },
            {
              "internalType": "string",
              "name": "tokenURI",
              "type": "string"
            },
            {
              "internalType": "bool",
              "name": "issued",
              "type": "bool"
            }
          ],
          "internalType": "struct UniversityDegree.Degree[]",
          "name": "",
          "type": "tuple[]"
        }
      ],
      "stateMutability": "view",
      "type": "function"
    },
    {
      "inputs": [
        {
          "internalType": "address",
          "name": "person",
          "type": "address"
        }
      ],
      "name": "getTokenIdFromAddress",
      "outputs": [
        {
          "internalType": "uint256",
          "name": "",
          "type": "uint256"
        }
      ],
      "stateMutability": "view",
      "type": "function"
    },
    {
      "inputs": [
        {
          "internalType": "address",
          "name": "owner",
          "type": "address"
        },
        {
          "internalType": "address",
          "name": "operator",
          "type": "address"
        }
      ],
      "name": "isApprovedForAll",
      "outputs": [
        {
          "internalType": "bool",
          "name": "",
          "type": "bool"
        }
      ],
      "stateMutability": "view",
      "type": "function"
    },
    {
      "inputs": [],
      "name": "isOwner",
      "outputs": [
        {
          "internalType": "bool",
          "name": "",
          "type": "bool"
        }
      ],
      "stateMutability": "view",
      "type": "function"
    },
    {
      "inputs": [
        {
          "internalType": "address",
          "name": "to",
          "type": "address"
        },
        {
          "internalType": "string",
          "name": "tokenURI",
          "type": "string"
        }
      ],
      "name": "issueDegree",
      "outputs": [],
      "stateMutability": "nonpayable",
      "type": "function"
    },
    {
      "inputs": [],
      "name": "name",
      "outputs": [
        {
          "internalType": "string",
          "name": "",
          "type": "string"
        }
      ],
      "stateMutability": "view",
      "type": "function"
    },
    {
      "inputs": [],
      "name": "owner",
      "outputs": [
        {
          "internalType": "address",
          "name": "",
          "type": "address"
        }
      ],
      "stateMutability": "view",
      "type": "function"
    },
    {
      "inputs": [
        {
          "internalType": "uint256",
          "name": "tokenId",
          "type": "uint256"
        }
      ],
      "name": "ownerOf",
      "outputs": [
        {
          "internalType": "address",
          "name": "",
          "type": "address"
        }
      ],
      "stateMutability": "view",
      "type": "function"
    },
    {
      "inputs": [
        {
          "internalType": "address",
          "name": "",
          "type": "address"
        }
      ],
      "name": "personToDegree",
      "outputs": [
        {
          "internalType": "uint256",
          "name": "tokenId",
          "type": "uint256"
        },
        {
          "internalType": "address",
          "name": "person",
          "type": "address"
        },
        {
          "internalType": "string",
          "name": "tokenURI",
          "type": "string"
        },
        {
          "internalType": "bool",
          "name": "issued",
          "type": "bool"
        }
      ],
      "stateMutability": "view",
      "type": "function"
    },
    {
      "inputs": [
        {
          "internalType": "string",
          "name": "tokenURI",
          "type": "string"
        }
      ],
      "name": "requestDegree",
      "outputs": [],
      "stateMutability": "nonpayable",
      "type": "function"
    },
    {
      "inputs": [
        {
          "internalType": "address",
          "name": "operator",
          "type": "address"
        },
        {
          "internalType": "bool",
          "name": "approved",
          "type": "bool"
        }
      ],
      "name": "setApprovalForAll",
      "outputs": [],
      "stateMutability": "nonpayable",
      "type": "function"
    },
    {
      "inputs": [
        {
          "internalType": "bytes4",
          "name": "interfaceId",
          "type": "bytes4"
        }
      ],
      "name": "supportsInterface",
      "outputs": [
        {
          "internalType": "bool",
          "name": "",
          "type": "bool"
        }
      ],
      "stateMutability": "view",
      "type": "function"
    },
    {
      "inputs": [],
      "name": "symbol",
      "outputs": [
        {
          "internalType": "string",
          "name": "",
          "type": "string"
        }
      ],
      "stateMutability": "view",
      "type": "function"
    },
    {
      "inputs": [
        {
          "internalType": "uint256",
          "name": "tokenId",
          "type": "uint256"
        }
      ],
      "name": "tokenURI",
      "outputs": [
        {
          "internalType": "string",
          "name": "",
          "type": "string"
        }
      ],
      "stateMutability": "view",
      "type": "function"
    },
    {
      "inputs": [
        {
          "internalType": "address",
          "name": "from",
          "type": "address"
        },
        {
          "internalType": "address",
          "name": "to",
          "type": "address"
        },
        {
          "internalType": "uint256",
          "name": "tokenId",
          "type": "uint256"
        }
      ],
      "name": "transferFrom",
      "outputs": [],
      "stateMutability": "nonpayable",
      "type": "function"
    }
  ],
  "bytecode": "0x60806040523480156200001157600080fd5b506040805180820182526006815265151c9d59525160d21b60208083019182528351808501909452600384526215125160ea1b9084015281519192916200005b916000916200008c565b508051620000719060019060208401906200008c565b5050600880546001600160a01b03191633179055506200016f565b8280546200009a9062000132565b90600052602060002090601f016020900481019282620000be576000855562000109565b82601f10620000d957805160ff191683800117855562000109565b8280016001018555821562000109579182015b8281111562000109578251825591602001919060010190620000ec565b50620001179291506200011b565b5090565b5b808211156200011757600081556001016200011c565b6002810460018216806200014757607f821691505b602082108114156200016957634e487b7160e01b600052602260045260246000fd5b50919050565b6123c4806200017f6000396000f3fe608060405234801561001057600080fd5b50600436106101375760003560e01c80636352211e116100b8578063a22cb4651161007c578063a22cb46514610273578063b5d473da14610286578063c542f2ac146102a6578063c87b56dd146102b9578063e59f92ff146102cc578063e985e9c5146102df57610137565b80636352211e1461023557806370a08231146102485780638da5cb5b1461025b5780638f32d59b1461026357806395d89b411461026b57610137565b806317a4889d116100ff57806317a4889d146101cf57806323b872dd146101e257806337f902f0146101f557806350e561b8146102185780635e7531dc1461022d57610137565b806301ffc9a71461013c5780630206e70b1461016557806306fdde0314610185578063081812fc1461019a578063095ea7b3146101ba575b600080fd5b61014f61014a366004611b73565b6102f2565b60405161015c9190611cfc565b60405180910390f35b610178610173366004611a3d565b61033a565b60405161015c9190612229565b61018d610355565b60405161015c9190611d07565b6101ad6101a8366004611bce565b6103e7565b60405161015c9190611c88565b6101cd6101c8366004611b4a565b610433565b005b6101cd6101dd366004611b9b565b6104cb565b6101cd6101f0366004611a89565b6105c6565b610208610203366004611a3d565b6105fe565b60405161015c9493929190612232565b6102206106bc565b60405161015c9190611c9c565b610220610931565b6101ad610243366004611bce565b610b9e565b610178610256366004611a3d565b610bd3565b6101ad610c17565b61014f610c26565b61018d610c37565b6101cd610281366004611ac4565b610c46565b610299610294366004611a3d565b610c5c565b60405161015c9190612216565b6101cd6102b4366004611afe565b610d49565b61018d6102c7366004611bce565b610eb1565b6101cd6102da366004611bce565b610fd2565b61014f6102ed366004611a57565b611197565b60006001600160e01b03198216637aa5391d60e01b148061032357506001600160e01b03198216635b5e139f60e01b145b806103325750610332826111c5565b90505b919050565b6001600160a01b031660009081526009602052604090205490565b606060008054610364906122e2565b80601f0160208091040260200160405190810160405280929190818152602001828054610390906122e2565b80156103dd5780601f106103b2576101008083540402835291602001916103dd565b820191906000526020600020905b8154815290600101906020018083116103c057829003601f168201915b5050505050905090565b60006103f2826111de565b6104175760405162461bcd60e51b815260040161040e906120a5565b60405180910390fd5b506000908152600460205260409020546001600160a01b031690565b600061043e82610b9e565b9050806001600160a01b0316836001600160a01b031614156104725760405162461bcd60e51b815260040161040e90612140565b806001600160a01b03166104846111fb565b6001600160a01b031614806104a057506104a0816102ed6111fb565b6104bc5760405162461bcd60e51b815260040161040e90611eba565b6104c683836111ff565b505050565b3360009081526009602052604090206003015460ff16156104fe5760405162461bcd60e51b815260040161040e906121d2565b610508600761126d565b60006105146007611276565b6040805160808101825282815233602080830182815283850188815260006060860181905293845260098352949092208351815591516001830180546001600160a01b0319166001600160a01b0390921691909117905592518051949550919390926105879260028501929101906118a1565b50606091909101516003909101805491151560ff199092169190911790556000908152600a6020526040902080546001600160a01b0319163317905550565b6105d76105d16111fb565b8261127a565b6105f35760405162461bcd60e51b815260040161040e90612181565b6104c68383836112fe565b60096020526000908152604090208054600182015460028301805492936001600160a01b0390921692610630906122e2565b80601f016020809104026020016040519081016040528092919081815260200182805461065c906122e2565b80156106a95780601f1061067e576101008083540402835291602001916106a9565b820191906000526020600020905b81548152906001019060200180831161068c57829003601f168201915b5050506003909301549192505060ff1684565b606060006106ca6007611276565b9050600060015b828111610740576000818152600a60205260409020546001600160a01b0316801580159061071a57506001600160a01b03811660009081526009602052604090206003015460ff165b1561072d57826107298161231d565b9350505b50806107388161231d565b9150506106d1565b5060008167ffffffffffffffff81111561076a57634e487b7160e01b600052604160045260246000fd5b6040519080825280602002602001820160405280156107a357816020015b610790611925565b8152602001906001900390816107885790505b509050600060015b848111610927576000818152600a60205260409020546001600160a01b031680158015906107f457506001600160a01b03811660009081526009602052604090206003015460ff165b15610914576001600160a01b038082166000908152600960209081526040918290208251608081018452815481526001820154909416918401919091526002810180549192840191610845906122e2565b80601f0160208091040260200160405190810160405280929190818152602001828054610871906122e2565b80156108be5780601f10610893576101008083540402835291602001916108be565b820191906000526020600020905b8154815290600101906020018083116108a157829003601f168201915b50505091835250506003919091015460ff16151560209091015284518590859081106108fa57634e487b7160e01b600052603260045260246000fd5b602002602001018190525082806109109061231d565b9350505b508061091f8161231d565b9150506107ab565b5090935050505090565b6060600061093f6007611276565b9050600060015b8281116109b6576000818152600a60205260409020546001600160a01b0316801580159061099057506001600160a01b03811660009081526009602052604090206003015460ff16155b156109a3578261099f8161231d565b9350505b50806109ae8161231d565b915050610946565b5060008167ffffffffffffffff8111156109e057634e487b7160e01b600052604160045260246000fd5b604051908082528060200260200182016040528015610a1957816020015b610a06611925565b8152602001906001900390816109fe5790505b509050600060015b848111610927576000818152600a60205260409020546001600160a01b03168015801590610a6b57506001600160a01b03811660009081526009602052604090206003015460ff16155b15610b8b576001600160a01b038082166000908152600960209081526040918290208251608081018452815481526001820154909416918401919091526002810180549192840191610abc906122e2565b80601f0160208091040260200160405190810160405280929190818152602001828054610ae8906122e2565b8015610b355780601f10610b0a57610100808354040283529160200191610b35565b820191906000526020600020905b815481529060010190602001808311610b1857829003601f168201915b50505091835250506003919091015460ff1615156020909101528451859085908110610b7157634e487b7160e01b600052603260045260246000fd5b60200260200101819052508280610b879061231d565b9350505b5080610b968161231d565b915050610a21565b6000818152600260205260408120546001600160a01b0316806103325760405162461bcd60e51b815260040161040e90611f88565b60006001600160a01b038216610bfb5760405162461bcd60e51b815260040161040e90611f3e565b506001600160a01b031660009081526003602052604090205490565b6008546001600160a01b031681565b6008546001600160a01b0316331490565b606060018054610364906122e2565b610c58610c516111fb565b8383611431565b5050565b610c64611925565b6001600160a01b038083166000908152600960209081526040918290208251608081018452815481526001820154909416918401919091526002810180549192840191610cb0906122e2565b80601f0160208091040260200160405190810160405280929190818152602001828054610cdc906122e2565b8015610d295780601f10610cfe57610100808354040283529160200191610d29565b820191906000526020600020905b815481529060010190602001808311610d0c57829003601f168201915b50505091835250506003919091015460ff16151560209091015292915050565b6008546001600160a01b03163314610d735760405162461bcd60e51b815260040161040e90611f17565b6001600160a01b03821660009081526009602052604090206003015460ff1615610daf5760405162461bcd60e51b815260040161040e90611d1a565b610db9600761126d565b6000610dc56007611276565b9050610dd183826114d4565b610ddb81836115bb565b604080516080810182528281526001600160a01b0385811660208084018281528486018881526001606087018190526000948552600984529690932085518155905195810180546001600160a01b0319169690941695909517909255518051929392610e4d92600285019201906118a1565b50606091909101516003909101805460ff19169115159190911790556040516001600160a01b038416907f77aa2104a5847fc7effd20305146555291d6e4a9cf31d06543eceabc88bda8b390610ea4908590611d07565b60405180910390a2505050565b6060610ebc826111de565b610ed85760405162461bcd60e51b815260040161040e90612054565b60008281526006602052604081208054610ef1906122e2565b80601f0160208091040260200160405190810160405280929190818152602001828054610f1d906122e2565b8015610f6a5780601f10610f3f57610100808354040283529160200191610f6a565b820191906000526020600020905b815481529060010190602001808311610f4d57829003601f168201915b505050505090506000610f7b6115ff565b9050805160001415610f8f57509050610335565b815115610fc1578082604051602001610fa9929190611c59565b60405160208183030381529060405292505050610335565b610fca84611611565b949350505050565b6008546001600160a01b03163314610ffc5760405162461bcd60e51b815260040161040e90611f17565b600061100782610b9e565b90506001600160a01b03811661102f5760405162461bcd60e51b815260040161040e90611e40565b6000828152600a60209081526040808320546001600160a01b0316808452600990925282206002018054919291611065906122e2565b80601f0160208091040260200160405190810160405280929190818152602001828054611091906122e2565b80156110de5780601f106110b3576101008083540402835291602001916110de565b820191906000526020600020905b8154815290600101906020018083116110c157829003601f168201915b505050505090506110ee84611694565b6000848152600a6020908152604080832080546001600160a01b03199081169091556001600160a01b038616845260099092528220828155600181018054909216909155906111406002830182611958565b50600301805460ff191690556040516001600160a01b0383169085907f2bf9868dac278b225f484411e274ff3560e7cab5729b5edd79d77a81bf50301690611189908590611d07565b60405180910390a350505050565b6001600160a01b03918216600090815260056020908152604080832093909416825291909152205460ff1690565b6001600160e01b031981166301ffc9a760e01b14919050565b6000908152600260205260409020546001600160a01b0316151590565b3390565b600081815260046020526040902080546001600160a01b0319166001600160a01b038416908117909155819061123482610b9e565b6001600160a01b03167f8c5be1e5ebec7d5bd14f71427d1e84f3dd0314c0f7b2291e5b200ac8c7c3b92560405160405180910390a45050565b80546001019055565b5490565b6000611285826111de565b6112a15760405162461bcd60e51b815260040161040e90611e6e565b60006112ac83610b9e565b9050806001600160a01b0316846001600160a01b031614806112d357506112d38185611197565b80610fca5750836001600160a01b03166112ec846103e7565b6001600160a01b031614949350505050565b826001600160a01b031661131182610b9e565b6001600160a01b0316146113375760405162461bcd60e51b815260040161040e90611d49565b6001600160a01b03821661135d5760405162461bcd60e51b815260040161040e90611dc5565b6113688383836104c6565b6113736000826111ff565b6001600160a01b038316600090815260036020526040812080546001929061139c90849061229b565b90915550506001600160a01b03821660009081526003602052604081208054600192906113ca90849061226f565b909155505060008181526002602052604080822080546001600160a01b0319166001600160a01b0386811691821790925591518493918716917fddf252ad1be2c89b69c2b068fc378daa952ba7f163c4a11628f55a4df523b3ef91a46104c68383836104c6565b816001600160a01b0316836001600160a01b031614156114635760405162461bcd60e51b815260040161040e90611e09565b6001600160a01b0383811660008181526005602090815260408083209487168084529490915290819020805460ff1916851515179055517f17307eab39ab6107e8899845ad3d59bd9653f200f220920489ca2b5937696c31906114c7908590611cfc565b60405180910390a3505050565b6001600160a01b0382166114fa5760405162461bcd60e51b815260040161040e9061201f565b611503816111de565b156115205760405162461bcd60e51b815260040161040e90611d8e565b61152c600083836104c6565b6001600160a01b038216600090815260036020526040812080546001929061155590849061226f565b909155505060008181526002602052604080822080546001600160a01b0319166001600160a01b03861690811790915590518392907fddf252ad1be2c89b69c2b068fc378daa952ba7f163c4a11628f55a4df523b3ef908290a4610c58600083836104c6565b6115c4826111de565b6115e05760405162461bcd60e51b815260040161040e90611fd1565b600082815260066020908152604090912082516104c6928401906118a1565b60408051602081019091526000815290565b606061161c826111de565b6116385760405162461bcd60e51b815260040161040e906120f1565b60006116426115ff565b90506000815111611662576040518060200160405280600081525061168d565b8061166c846116d7565b60405160200161167d929190611c59565b6040516020818303038152906040525b9392505050565b61169d816117f2565b600081815260066020526040902080546116b6906122e2565b1590506116d45760008181526006602052604081206116d491611958565b50565b6060816116fc57506040805180820190915260018152600360fc1b6020820152610335565b8160005b811561172657806117108161231d565b915061171f9050600a83612287565b9150611700565b60008167ffffffffffffffff81111561174f57634e487b7160e01b600052604160045260246000fd5b6040519080825280601f01601f191660200182016040528015611779576020820181803683370190505b5090505b8415610fca5761178e60018361229b565b915061179b600a86612338565b6117a690603061226f565b60f81b8183815181106117c957634e487b7160e01b600052603260045260246000fd5b60200101906001600160f81b031916908160001a9053506117eb600a86612287565b945061177d565b60006117fd82610b9e565b905061180b816000846104c6565b6118166000836111ff565b6001600160a01b038116600090815260036020526040812080546001929061183f90849061229b565b909155505060008281526002602052604080822080546001600160a01b0319169055518391906001600160a01b038416907fddf252ad1be2c89b69c2b068fc378daa952ba7f163c4a11628f55a4df523b3ef908390a4610c58816000846104c6565b8280546118ad906122e2565b90600052602060002090601f0160209004810192826118cf5760008555611915565b82601f106118e857805160ff1916838001178555611915565b82800160010185558215611915579182015b828111156119155782518255916020019190600101906118fa565b50611921929150611990565b5090565b60405180608001604052806000815260200160006001600160a01b03168152602001606081526020016000151581525090565b508054611964906122e2565b6000825580601f1061197657506116d4565b601f0160209004906000526020600020908101906116d491905b5b808211156119215760008155600101611991565b80356001600160a01b038116811461033557600080fd5b600082601f8301126119cc578081fd5b813567ffffffffffffffff808211156119e7576119e7612378565b604051601f8301601f191681016020018281118282101715611a0b57611a0b612378565b604052828152848301602001861015611a22578384fd5b82602086016020830137918201602001929092529392505050565b600060208284031215611a4e578081fd5b61168d826119a5565b60008060408385031215611a69578081fd5b611a72836119a5565b9150611a80602084016119a5565b90509250929050565b600080600060608486031215611a9d578081fd5b611aa6846119a5565b9250611ab4602085016119a5565b9150604084013590509250925092565b60008060408385031215611ad6578182fd5b611adf836119a5565b915060208301358015158114611af3578182fd5b809150509250929050565b60008060408385031215611b10578182fd5b611b19836119a5565b9150602083013567ffffffffffffffff811115611b34578182fd5b611b40858286016119bc565b9150509250929050565b60008060408385031215611b5c578182fd5b611b65836119a5565b946020939093013593505050565b600060208284031215611b84578081fd5b81356001600160e01b03198116811461168d578182fd5b600060208284031215611bac578081fd5b813567ffffffffffffffff811115611bc2578182fd5b610fca848285016119bc565b600060208284031215611bdf578081fd5b5035919050565b60008151808452611bfe8160208601602086016122b2565b601f01601f19169290920160200192915050565b60008151835260018060a01b036020830151166020840152604082015160806040850152611c436080850182611be6565b6060938401511515949093019390935250919050565b60008351611c6b8184602088016122b2565b835190830190611c7f8183602088016122b2565b01949350505050565b6001600160a01b0391909116815260200190565b6000602080830181845280855180835260408601915060408482028701019250838701855b82811015611cef57603f19888603018452611cdd858351611c12565b94509285019290850190600101611cc1565b5092979650505050505050565b901515815260200190565b60006020825261168d6020830184611be6565b602080825260159082015274111959dc995948185b1c9958591e481a5cdcdd5959605a1b604082015260600190565b60208082526025908201527f4552433732313a207472616e736665722066726f6d20696e636f72726563742060408201526437bbb732b960d91b606082015260800190565b6020808252601c908201527f4552433732313a20746f6b656e20616c7265616479206d696e74656400000000604082015260600190565b60208082526024908201527f4552433732313a207472616e7366657220746f20746865207a65726f206164646040820152637265737360e01b606082015260800190565b60208082526019908201527f4552433732313a20617070726f766520746f2063616c6c657200000000000000604082015260600190565b602080825260149082015273151bdad95b88191bd95cc81b9bdd08195e1a5cdd60621b604082015260600190565b6020808252602c908201527f4552433732313a206f70657261746f7220717565727920666f72206e6f6e657860408201526b34b9ba32b73a103a37b5b2b760a11b606082015260800190565b60208082526038908201527f4552433732313a20617070726f76652063616c6c6572206973206e6f74206f7760408201527f6e6572206e6f7220617070726f76656420666f7220616c6c0000000000000000606082015260800190565b6020808252600d908201526c2737ba103a34329037bbb732b960991b604082015260600190565b6020808252602a908201527f4552433732313a2062616c616e636520717565727920666f7220746865207a65604082015269726f206164647265737360b01b606082015260800190565b60208082526029908201527f4552433732313a206f776e657220717565727920666f72206e6f6e657869737460408201526832b73a103a37b5b2b760b91b606082015260800190565b6020808252602e908201527f45524337323155524953746f726167653a2055524920736574206f66206e6f6e60408201526d32bc34b9ba32b73a103a37b5b2b760911b606082015260800190565b6020808252818101527f4552433732313a206d696e7420746f20746865207a65726f2061646472657373604082015260600190565b60208082526031908201527f45524337323155524953746f726167653a2055524920717565727920666f72206040820152703737b732bc34b9ba32b73a103a37b5b2b760791b606082015260800190565b6020808252602c908201527f4552433732313a20617070726f76656420717565727920666f72206e6f6e657860408201526b34b9ba32b73a103a37b5b2b760a11b606082015260800190565b6020808252602f908201527f4552433732314d657461646174613a2055524920717565727920666f72206e6f60408201526e3732bc34b9ba32b73a103a37b5b2b760891b606082015260800190565b60208082526021908201527f4552433732313a20617070726f76616c20746f2063757272656e74206f776e656040820152603960f91b606082015260800190565b60208082526031908201527f4552433732313a207472616e736665722063616c6c6572206973206e6f74206f6040820152701ddb995c881b9bdc88185c1c1c9bdd9959607a1b606082015260800190565b60208082526024908201527f44656772656520616c726561647920726571756573746564206f7220636c61696040820152636d65642160e01b606082015260800190565b60006020825261168d6020830184611c12565b90815260200190565b8481526001600160a01b038416602082015260806040820181905260009061225c90830185611be6565b9050821515606083015295945050505050565b600082198211156122825761228261234c565b500190565b60008261229657612296612362565b500490565b6000828210156122ad576122ad61234c565b500390565b60005b838110156122cd5781810151838201526020016122b5565b838111156122dc576000848401525b50505050565b6002810460018216806122f657607f821691505b6020821081141561231757634e487b7160e01b600052602260045260246000fd5b50919050565b60006000198214156123315761233161234c565b5060010190565b60008261234757612347612362565b500690565b634e487b7160e01b600052601160045260246000fd5b634e487b7160e01b600052601260045260246000fd5b634e487b7160e01b600052604160045260246000fdfea26469706673582212202b57e675d23ab050bcd03f1615a93d7a56924a643c99c8b15afba0d3b5dfde0564736f6c63430008000033",
  "linkReferences": {},
  "deployedLinkReferences": {}
}