{
  "_format": "hh-sol-artifact-1",
  "contractName": "UniversityDegree",
  "sourceName": "contracts/UniversityDegree.sol",
  "abi": [
    {
      "inputs": [],
      "stateMutability": "nonpayable",
      "type": "constructor"
    },
    {
      "anonymous": false,
      "inputs": [
        {
          "indexed": true,
          "internalType": "address",
          "name": "owner",
          "type": "address"
        },
        {
          "indexed": true,
          "internalType": "address",
          "name": "approved",
          "type": "address"
        },
        {
          "indexed": true,
          "internalType": "uint256",
          "name": "tokenId",
          "type": "uint256"
        }
      ],
      "name": "Approval",
      "type": "event"
    },
    {
      "anonymous": false,
      "inputs": [
        {
          "indexed": true,
          "internalType": "address",
          "name": "owner",
          "type": "address"
        },
        {
          "indexed": true,
          "internalType": "address",
          "name": "operator",
          "type": "address"
        },
        {
          "indexed": false,
          "internalType": "bool",
          "name": "approved",
          "type": "bool"
        }
      ],
      "name": "ApprovalForAll",
      "type": "event"
    },
    {
      "anonymous": false,
      "inputs": [
        {
          "indexed": true,
          "internalType": "uint256",
          "name": "tokenId",
          "type": "uint256"
        },
        {
          "indexed": true,
          "internalType": "address",
          "name": "to",
          "type": "address"
        },
        {
          "indexed": false,
          "internalType": "string",
          "name": "tokenURI",
          "type": "string"
        }
      ],
      "name": "DegreeBurned",
      "type": "event"
    },
    {
      "anonymous": false,
      "inputs": [
        {
          "indexed": true,
          "internalType": "address",
          "name": "to",
          "type": "address"
        },
        {
          "indexed": false,
          "internalType": "string",
          "name": "tokenURI",
          "type": "string"
        }
      ],
      "name": "DegreeIssued",
      "type": "event"
    },
    {
      "anonymous": false,
      "inputs": [
        {
          "indexed": true,
          "internalType": "address",
          "name": "from",
          "type": "address"
        },
        {
          "indexed": true,
          "internalType": "address",
          "name": "to",
          "type": "address"
        },
        {
          "indexed": true,
          "internalType": "uint256",
          "name": "tokenId",
          "type": "uint256"
        }
      ],
      "name": "Transfer",
      "type": "event"
    },
    {
      "inputs": [
        {
          "internalType": "address",
          "name": "newOwner",
          "type": "address"
        }
      ],
      "name": "addOwner",
      "outputs": [],
      "stateMutability": "nonpayable",
      "type": "function"
    },
    {
      "inputs": [
        {
          "internalType": "address",
          "name": "to",
          "type": "address"
        },
        {
          "internalType": "uint256",
          "name": "tokenId",
          "type": "uint256"
        }
      ],
      "name": "approve",
      "outputs": [],
      "stateMutability": "nonpayable",
      "type": "function"
    },
    {
      "inputs": [
        {
          "internalType": "address",
          "name": "owner",
          "type": "address"
        }
      ],
      "name": "balanceOf",
      "outputs": [
        {
          "internalType": "uint256",
          "name": "",
          "type": "uint256"
        }
      ],
      "stateMutability": "view",
      "type": "function"
    },
    {
      "inputs": [
        {
          "internalType": "address",
          "name": "person",
          "type": "address"
        }
      ],
      "name": "burnDegree",
      "outputs": [],
      "stateMutability": "nonpayable",
      "type": "function"
    },
    {
      "inputs": [
        {
          "internalType": "address",
          "name": "person",
          "type": "address"
        }
      ],
      "name": "checkDegreeOfPerson",
      "outputs": [
        {
          "components": [
            {
              "internalType": "uint256",
              "name": "tokenId",
              "type": "uint256"
            },
            {
              "internalType": "address",
              "name": "person",
              "type": "address"
            },
            {
              "internalType": "string",
              "name": "tokenURI",
              "type": "string"
            },
            {
              "internalType": "bool",
              "name": "issued",
              "type": "bool"
            }
          ],
          "internalType": "struct UniversityDegree.Degree",
          "name": "",
          "type": "tuple"
        }
      ],
      "stateMutability": "view",
      "type": "function"
    },
    {
      "inputs": [
        {
          "internalType": "address",
          "name": "person",
          "type": "address"
        }
      ],
      "name": "checkRequestOfPerson",
      "outputs": [
        {
          "internalType": "bool",
          "name": "",
          "type": "bool"
        }
      ],
      "stateMutability": "view",
      "type": "function"
    },
    {
      "inputs": [],
      "name": "getAllClaimedDegrees",
      "outputs": [
        {
          "components": [
            {
              "internalType": "uint256",
              "name": "tokenId",
              "type": "uint256"
            },
            {
              "internalType": "address",
              "name": "person",
              "type": "address"
            },
            {
              "internalType": "string",
              "name": "tokenURI",
              "type": "string"
            },
            {
              "internalType": "bool",
              "name": "issued",
              "type": "bool"
            }
          ],
          "internalType": "struct UniversityDegree.Degree[]",
          "name": "",
          "type": "tuple[]"
        }
      ],
      "stateMutability": "view",
      "type": "function"
    },
    {
      "inputs": [
        {
          "internalType": "uint256",
          "name": "tokenId",
          "type": "uint256"
        }
      ],
      "name": "getApproved",
      "outputs": [
        {
          "internalType": "address",
          "name": "",
          "type": "address"
        }
      ],
      "stateMutability": "view",
      "type": "function"
    },
    {
      "inputs": [],
      "name": "getNotClaimedDegrees",
      "outputs": [
        {
          "components": [
            {
              "internalType": "uint256",
              "name": "tokenId",
              "type": "uint256"
            },
            {
              "internalType": "address",
              "name": "person",
              "type": "address"
            },
            {
              "internalType": "string",
              "name": "tokenURI",
              "type": "string"
            },
            {
              "internalType": "bool",
              "name": "issued",
              "type": "bool"
            }
          ],
          "internalType": "struct UniversityDegree.Degree[]",
          "name": "",
          "type": "tuple[]"
        }
      ],
      "stateMutability": "view",
      "type": "function"
    },
    {
      "inputs": [
        {
          "internalType": "address",
          "name": "owner",
          "type": "address"
        },
        {
          "internalType": "address",
          "name": "operator",
          "type": "address"
        }
      ],
      "name": "isApprovedForAll",
      "outputs": [
        {
          "internalType": "bool",
          "name": "",
          "type": "bool"
        }
      ],
      "stateMutability": "view",
      "type": "function"
    },
    {
      "inputs": [
        {
          "internalType": "address",
          "name": "person",
          "type": "address"
        }
      ],
      "name": "isBurned",
      "outputs": [
        {
          "internalType": "bool",
          "name": "",
          "type": "bool"
        }
      ],
      "stateMutability": "view",
      "type": "function"
    },
    {
      "inputs": [
        {
          "internalType": "address",
          "name": "person",
          "type": "address"
        }
      ],
      "name": "isOwner",
      "outputs": [
        {
          "internalType": "bool",
          "name": "",
          "type": "bool"
        }
      ],
      "stateMutability": "view",
      "type": "function"
    },
    {
      "inputs": [
        {
          "internalType": "address",
          "name": "to",
          "type": "address"
        },
        {
          "internalType": "string",
          "name": "tokenURI",
          "type": "string"
        }
      ],
      "name": "issueDegree",
      "outputs": [],
      "stateMutability": "nonpayable",
      "type": "function"
    },
    {
      "inputs": [],
      "name": "name",
      "outputs": [
        {
          "internalType": "string",
          "name": "",
          "type": "string"
        }
      ],
      "stateMutability": "view",
      "type": "function"
    },
    {
      "inputs": [
        {
          "internalType": "uint256",
          "name": "tokenId",
          "type": "uint256"
        }
      ],
      "name": "ownerOf",
      "outputs": [
        {
          "internalType": "address",
          "name": "",
          "type": "address"
        }
      ],
      "stateMutability": "view",
      "type": "function"
    },
    {
      "inputs": [
        {
          "internalType": "address",
          "name": "",
          "type": "address"
        }
      ],
      "name": "personToDegree",
      "outputs": [
        {
          "internalType": "uint256",
          "name": "tokenId",
          "type": "uint256"
        },
        {
          "internalType": "address",
          "name": "person",
          "type": "address"
        },
        {
          "internalType": "string",
          "name": "tokenURI",
          "type": "string"
        },
        {
          "internalType": "bool",
          "name": "issued",
          "type": "bool"
        }
      ],
      "stateMutability": "view",
      "type": "function"
    },
    {
      "inputs": [
        {
          "internalType": "string",
          "name": "tokenURI",
          "type": "string"
        }
      ],
      "name": "requestDegree",
      "outputs": [],
      "stateMutability": "nonpayable",
      "type": "function"
    },
    {
      "inputs": [
        {
          "internalType": "address",
          "name": "operator",
          "type": "address"
        },
        {
          "internalType": "bool",
          "name": "approved",
          "type": "bool"
        }
      ],
      "name": "setApprovalForAll",
      "outputs": [],
      "stateMutability": "nonpayable",
      "type": "function"
    },
    {
      "inputs": [
        {
          "internalType": "bytes4",
          "name": "interfaceId",
          "type": "bytes4"
        }
      ],
      "name": "supportsInterface",
      "outputs": [
        {
          "internalType": "bool",
          "name": "",
          "type": "bool"
        }
      ],
      "stateMutability": "view",
      "type": "function"
    },
    {
      "inputs": [],
      "name": "symbol",
      "outputs": [
        {
          "internalType": "string",
          "name": "",
          "type": "string"
        }
      ],
      "stateMutability": "view",
      "type": "function"
    },
    {
      "inputs": [
        {
          "internalType": "uint256",
          "name": "tokenId",
          "type": "uint256"
        }
      ],
      "name": "tokenURI",
      "outputs": [
        {
          "internalType": "string",
          "name": "",
          "type": "string"
        }
      ],
      "stateMutability": "view",
      "type": "function"
    },
    {
      "inputs": [
        {
          "internalType": "address",
          "name": "from",
          "type": "address"
        },
        {
          "internalType": "address",
          "name": "to",
          "type": "address"
        },
        {
          "internalType": "uint256",
          "name": "tokenId",
          "type": "uint256"
        }
      ],
      "name": "transferFrom",
      "outputs": [],
      "stateMutability": "nonpayable",
      "type": "function"
    }
  ],
  "bytecode": "0x60806040523480156200001157600080fd5b506040805180820182526006815265151c9d59525160d21b60208083019182528351808501909452600384526215125160ea1b9084015281519192916200005b91600091620000e7565b50805162000071906001906020840190620000e7565b5050600880546001818101835560008390527ff3f7a9fe364faab93b216da50a3214154f22a0a2b415b23a84c8169e8b636ee391820180546001600160a01b031990811633179091558354918201909355018054909116735363432541bf9838b74ad922826d74540cb0578817905550620001ca565b828054620000f5906200018d565b90600052602060002090601f01602090048101928262000119576000855562000164565b82601f106200013457805160ff191683800117855562000164565b8280016001018555821562000164579182015b828111156200016457825182559160200191906001019062000147565b506200017292915062000176565b5090565b5b8082111562000172576000815560010162000177565b600281046001821680620001a257607f821691505b60208210811415620001c457634e487b7160e01b600052602260045260246000fd5b50919050565b61282080620001da6000396000f3fe608060405234801561001057600080fd5b50600436106101425760003560e01c80636352211e116100b8578063a22cb4651161007c578063a22cb465146102a7578063b5d473da146102ba578063b670f968146102da578063c542f2ac146102ed578063c87b56dd14610300578063e985e9c51461031357610142565b80636352211e146102465780636ae116f8146102595780637065cb481461026c57806370a082311461027f57806395d89b411461029f57610142565b806319208ea11161010a57806319208ea1146101cd57806323b872dd146101e05780632f54bf6e146101f357806337f902f01461020657806350e561b8146102295780635e7531dc1461023e57610142565b806301ffc9a71461014757806306fdde0314610170578063081812fc14610185578063095ea7b3146101a557806317a4889d146101ba575b600080fd5b61015a610155366004611eed565b610326565b6040516101679190612076565b60405180910390f35b61017861036e565b6040516101679190612081565b610198610193366004611f48565b610401565b6040516101679190612002565b6101b86101b3366004611ec4565b61044d565b005b6101b86101c8366004611f15565b6104e5565b6101b86101db366004611db7565b610648565b6101b86101ee366004611e03565b610856565b61015a610201366004611db7565b61088e565b610219610214366004611db7565b610901565b604051610167949392919061268e565b6102316109bf565b6040516101679190612016565b610231610c7e565b610198610254366004611f48565b610eeb565b61015a610267366004611db7565b610f20565b6101b861027a366004611db7565b610f3e565b61029261028d366004611db7565b611015565b6040516101679190612685565b610178611059565b6101b86102b5366004611e3e565b611068565b6102cd6102c8366004611db7565b61107e565b6040516101679190612672565b61015a6102e8366004611db7565b61116b565b6101b86102fb366004611e78565b611189565b61017861030e366004611f48565b61134c565b61015a610321366004611dd1565b61146d565b60006001600160e01b03198216637aa5391d60e01b148061035757506001600160e01b03198216635b5e139f60e01b145b8061036657506103668261149b565b90505b919050565b60606000805461037d9061273e565b80601f01602080910402602001604051908101604052809291908181526020018280546103a99061273e565b80156103f65780601f106103cb576101008083540402835291602001916103f6565b820191906000526020600020905b8154815290600101906020018083116103d957829003601f168201915b505050505090505b90565b600061040c826114b4565b6104315760405162461bcd60e51b815260040161042890612480565b60405180910390fd5b506000908152600460205260409020546001600160a01b031690565b600061045882610eeb565b9050806001600160a01b0316836001600160a01b0316141561048c5760405162461bcd60e51b815260040161042890612581565b806001600160a01b031661049e6114d1565b6001600160a01b031614806104ba57506104ba816103216114d1565b6104d65760405162461bcd60e51b8152600401610428906122bc565b6104e083836114d5565b505050565b336000908152600b602052604090205460ff16156105155760405162461bcd60e51b81526004016104289061254a565b60008151116105365760405162461bcd60e51b8152600401610428906120c3565b3360009081526009602052604090206003015460ff16156105695760405162461bcd60e51b815260040161042890612613565b6105736007611543565b600061057f600761154c565b6040805160808101825282815233602080830182815283850188815260006060860181905293845260098352949092208351815591516001830180546001600160a01b0319166001600160a01b0390921691909117905592518051949550919390926105f2926002850192910190611c1b565b50606091909101516003909101805491151560ff19928316179055336000818152600b602090815260408083208054909516600117909455938152600a909352912080546001600160a01b031916909117905550565b6001600160a01b0381166000908152600960205260409020548061067e5760405162461bcd60e51b815260040161042890612242565b6001600160a01b03821660009081526009602052604090206003015460ff166106b95760405162461bcd60e51b8152600401610428906120fa565b6001600160a01b0382166000908152600c602052604090205460ff16156106f25760405162461bcd60e51b81526004016104289061251b565b60006106fd82610eeb565b90506000610709611550565b336001600160a01b03918216811492509083161481806107265750805b6107425760405162461bcd60e51b81526004016104289061264a565b6001600160a01b038516600090815260096020526040812060020180546107689061273e565b80601f01602080910402602001604051908101604052809291908181526020018280546107949061273e565b80156107e15780601f106107b6576101008083540402835291602001916107e1565b820191906000526020600020905b8154815290600101906020018083116107c457829003601f168201915b505050505090506107f1856115f4565b6001600160a01b0386166000818152600c602052604090819020805460ff191660011790555186907f2bf9868dac278b225f484411e274ff3560e7cab5729b5edd79d77a81bf50301690610846908590612081565b60405180910390a3505050505050565b6108676108616114d1565b82611637565b6108835760405162461bcd60e51b8152600401610428906125c2565b6104e08383836116bb565b6000805b6008548110156108f857600881815481106108bd57634e487b7160e01b600052603260045260246000fd5b6000918252602090912001546001600160a01b03848116911614156108e6576001915050610369565b806108f081612779565b915050610892565b50600092915050565b60096020526000908152604090208054600182015460028301805492936001600160a01b03909216926109339061273e565b80601f016020809104026020016040519081016040528092919081815260200182805461095f9061273e565b80156109ac5780601f10610981576101008083540402835291602001916109ac565b820191906000526020600020905b81548152906001019060200180831161098f57829003601f168201915b5050506003909301549192505060ff1684565b606060006109cd600761154c565b9050600060015b828111610a68576000818152600a60205260409020546001600160a01b03168015801590610a1d57506001600160a01b03811660009081526009602052604090206003015460ff165b8015610a4257506001600160a01b0381166000908152600c602052604090205460ff16155b15610a555782610a5181612779565b9350505b5080610a6081612779565b9150506109d4565b5060008167ffffffffffffffff811115610a9257634e487b7160e01b600052604160045260246000fd5b604051908082528060200260200182016040528015610acb57816020015b610ab8611c9f565b815260200190600190039081610ab05790505b509050600060015b848111610c74576000818152600a60205260409020546001600160a01b03168015801590610b1c57506001600160a01b03811660009081526009602052604090206003015460ff165b8015610b4157506001600160a01b0381166000908152600c602052604090205460ff16155b15610c61576001600160a01b038082166000908152600960209081526040918290208251608081018452815481526001820154909416918401919091526002810180549192840191610b929061273e565b80601f0160208091040260200160405190810160405280929190818152602001828054610bbe9061273e565b8015610c0b5780601f10610be057610100808354040283529160200191610c0b565b820191906000526020600020905b815481529060010190602001808311610bee57829003601f168201915b50505091835250506003919091015460ff1615156020909101528451859085908110610c4757634e487b7160e01b600052603260045260246000fd5b60200260200101819052508280610c5d90612779565b9350505b5080610c6c81612779565b915050610ad3565b5090935050505090565b60606000610c8c600761154c565b9050600060015b828111610d03576000818152600a60205260409020546001600160a01b03168015801590610cdd57506001600160a01b03811660009081526009602052604090206003015460ff16155b15610cf05782610cec81612779565b9350505b5080610cfb81612779565b915050610c93565b5060008167ffffffffffffffff811115610d2d57634e487b7160e01b600052604160045260246000fd5b604051908082528060200260200182016040528015610d6657816020015b610d53611c9f565b815260200190600190039081610d4b5790505b509050600060015b848111610c74576000818152600a60205260409020546001600160a01b03168015801590610db857506001600160a01b03811660009081526009602052604090206003015460ff16155b15610ed8576001600160a01b038082166000908152600960209081526040918290208251608081018452815481526001820154909416918401919091526002810180549192840191610e099061273e565b80601f0160208091040260200160405190810160405280929190818152602001828054610e359061273e565b8015610e825780601f10610e5757610100808354040283529160200191610e82565b820191906000526020600020905b815481529060010190602001808311610e6557829003601f168201915b50505091835250506003919091015460ff1615156020909101528451859085908110610ebe57634e487b7160e01b600052603260045260246000fd5b60200260200101819052508280610ed490612779565b9350505b5080610ee381612779565b915050610d6e565b6000818152600260205260408120546001600160a01b0316806103665760405162461bcd60e51b815260040161042890612363565b6001600160a01b03166000908152600b602052604090205460ff1690565b6000805b600854811015610fa45760088181548110610f6d57634e487b7160e01b600052603260045260246000fd5b6000918252602090912001546001600160a01b0316331415610f925760019150610fa4565b80610f9c81612779565b915050610f42565b5080610fc25760405162461bcd60e51b8152600401610428906121a1565b50600880546001810182556000919091527ff3f7a9fe364faab93b216da50a3214154f22a0a2b415b23a84c8169e8b636ee30180546001600160a01b0319166001600160a01b0392909216919091179055565b60006001600160a01b03821661103d5760405162461bcd60e51b815260040161042890612319565b506001600160a01b031660009081526003602052604090205490565b60606001805461037d9061273e565b61107a6110736114d1565b83836117ee565b5050565b611086611c9f565b6001600160a01b0380831660009081526009602090815260409182902082516080810184528154815260018201549094169184019190915260028101805491928401916110d29061273e565b80601f01602080910402602001604051908101604052809291908181526020018280546110fe9061273e565b801561114b5780601f106111205761010080835404028352916020019161114b565b820191906000526020600020905b81548152906001019060200180831161112e57829003601f168201915b50505091835250506003919091015460ff16151560209091015292915050565b6001600160a01b03166000908152600c602052604090205460ff1690565b6000805b6008548110156111ef57600881815481106111b857634e487b7160e01b600052603260045260246000fd5b6000918252602090912001546001600160a01b03163314156111dd57600191506111ef565b806111e781612779565b91505061118d565b508061120d5760405162461bcd60e51b8152600401610428906121a1565b6001600160a01b03831660009081526009602052604090206003015460ff16156112495760405162461bcd60e51b815260040161042890612094565b6112536007611543565b600061125f600761154c565b905061126b8482611891565b6112758184611978565b604080516080810182528281526001600160a01b0386811660208084018281528486018981526001606087018190526000948552600984529690932085518155905195810180546001600160a01b03191696909416959095179092555180519293926112e79260028501920190611c1b565b50606091909101516003909101805460ff19169115159190911790556040516001600160a01b038516907f77aa2104a5847fc7effd20305146555291d6e4a9cf31d06543eceabc88bda8b39061133e908690612081565b60405180910390a250505050565b6060611357826114b4565b6113735760405162461bcd60e51b81526004016104289061242f565b6000828152600660205260408120805461138c9061273e565b80601f01602080910402602001604051908101604052809291908181526020018280546113b89061273e565b80156114055780601f106113da57610100808354040283529160200191611405565b820191906000526020600020905b8154815290600101906020018083116113e857829003601f168201915b5050505050905060006114166119bc565b905080516000141561142a57509050610369565b81511561145c578082604051602001611444929190611fd3565b60405160208183030381529060405292505050610369565b611465846119ce565b949350505050565b6001600160a01b03918216600090815260056020908152604080832093909416825291909152205460ff1690565b6001600160e01b031981166301ffc9a760e01b14919050565b6000908152600260205260409020546001600160a01b0316151590565b3390565b600081815260046020526040902080546001600160a01b0319166001600160a01b038416908117909155819061150a82610eeb565b6001600160a01b03167f8c5be1e5ebec7d5bd14f71427d1e84f3dd0314c0f7b2291e5b200ac8c7c3b92560405160405180910390a45050565b80546001019055565b5490565b6000805b6008548110156115ec576008818154811061157f57634e487b7160e01b600052603260045260246000fd5b6000918252602090912001546001600160a01b03163314156115da57600881815481106115bc57634e487b7160e01b600052603260045260246000fd5b6000918252602090912001546001600160a01b031691506103fe9050565b806115e481612779565b915050611554565b506000905090565b6115fd81611a51565b600081815260066020526040902080546116169061273e565b15905061163457600081815260066020526040812061163491611cd2565b50565b6000611642826114b4565b61165e5760405162461bcd60e51b815260040161042890612270565b600061166983610eeb565b9050806001600160a01b0316846001600160a01b031614806116905750611690818561146d565b806114655750836001600160a01b03166116a984610401565b6001600160a01b031614949350505050565b826001600160a01b03166116ce82610eeb565b6001600160a01b0316146116f45760405162461bcd60e51b815260040161042890612125565b6001600160a01b03821661171a5760405162461bcd60e51b8152600401610428906121c7565b6117258383836104e0565b6117306000826114d5565b6001600160a01b03831660009081526003602052604081208054600192906117599084906126f7565b90915550506001600160a01b03821660009081526003602052604081208054600192906117879084906126cb565b909155505060008181526002602052604080822080546001600160a01b0319166001600160a01b0386811691821790925591518493918716917fddf252ad1be2c89b69c2b068fc378daa952ba7f163c4a11628f55a4df523b3ef91a46104e08383836104e0565b816001600160a01b0316836001600160a01b031614156118205760405162461bcd60e51b81526004016104289061220b565b6001600160a01b0383811660008181526005602090815260408083209487168084529490915290819020805460ff1916851515179055517f17307eab39ab6107e8899845ad3d59bd9653f200f220920489ca2b5937696c3190611884908590612076565b60405180910390a3505050565b6001600160a01b0382166118b75760405162461bcd60e51b8152600401610428906123fa565b6118c0816114b4565b156118dd5760405162461bcd60e51b81526004016104289061216a565b6118e9600083836104e0565b6001600160a01b03821660009081526003602052604081208054600192906119129084906126cb565b909155505060008181526002602052604080822080546001600160a01b0319166001600160a01b03861690811790915590518392907fddf252ad1be2c89b69c2b068fc378daa952ba7f163c4a11628f55a4df523b3ef908290a461107a600083836104e0565b611981826114b4565b61199d5760405162461bcd60e51b8152600401610428906123ac565b600082815260066020908152604090912082516104e092840190611c1b565b60408051602081019091526000815290565b60606119d9826114b4565b6119f55760405162461bcd60e51b8152600401610428906124cc565b60006119ff6119bc565b90506000815111611a1f5760405180602001604052806000815250611a4a565b80611a2984611b00565b604051602001611a3a929190611fd3565b6040516020818303038152906040525b9392505050565b6000611a5c82610eeb565b9050611a6a816000846104e0565b611a756000836114d5565b6001600160a01b0381166000908152600360205260408120805460019290611a9e9084906126f7565b909155505060008281526002602052604080822080546001600160a01b0319169055518391906001600160a01b038416907fddf252ad1be2c89b69c2b068fc378daa952ba7f163c4a11628f55a4df523b3ef908390a461107a816000846104e0565b606081611b2557506040805180820190915260018152600360fc1b6020820152610369565b8160005b8115611b4f5780611b3981612779565b9150611b489050600a836126e3565b9150611b29565b60008167ffffffffffffffff811115611b7857634e487b7160e01b600052604160045260246000fd5b6040519080825280601f01601f191660200182016040528015611ba2576020820181803683370190505b5090505b841561146557611bb76001836126f7565b9150611bc4600a86612794565b611bcf9060306126cb565b60f81b818381518110611bf257634e487b7160e01b600052603260045260246000fd5b60200101906001600160f81b031916908160001a905350611c14600a866126e3565b9450611ba6565b828054611c279061273e565b90600052602060002090601f016020900481019282611c495760008555611c8f565b82601f10611c6257805160ff1916838001178555611c8f565b82800160010185558215611c8f579182015b82811115611c8f578251825591602001919060010190611c74565b50611c9b929150611d0a565b5090565b60405180608001604052806000815260200160006001600160a01b03168152602001606081526020016000151581525090565b508054611cde9061273e565b6000825580601f10611cf05750611634565b601f01602090049060005260206000209081019061163491905b5b80821115611c9b5760008155600101611d0b565b80356001600160a01b038116811461036957600080fd5b600082601f830112611d46578081fd5b813567ffffffffffffffff80821115611d6157611d616127d4565b604051601f8301601f191681016020018281118282101715611d8557611d856127d4565b604052828152848301602001861015611d9c578384fd5b82602086016020830137918201602001929092529392505050565b600060208284031215611dc8578081fd5b611a4a82611d1f565b60008060408385031215611de3578081fd5b611dec83611d1f565b9150611dfa60208401611d1f565b90509250929050565b600080600060608486031215611e17578081fd5b611e2084611d1f565b9250611e2e60208501611d1f565b9150604084013590509250925092565b60008060408385031215611e50578182fd5b611e5983611d1f565b915060208301358015158114611e6d578182fd5b809150509250929050565b60008060408385031215611e8a578182fd5b611e9383611d1f565b9150602083013567ffffffffffffffff811115611eae578182fd5b611eba85828601611d36565b9150509250929050565b60008060408385031215611ed6578182fd5b611edf83611d1f565b946020939093013593505050565b600060208284031215611efe578081fd5b81356001600160e01b031981168114611a4a578182fd5b600060208284031215611f26578081fd5b813567ffffffffffffffff811115611f3c578182fd5b61146584828501611d36565b600060208284031215611f59578081fd5b5035919050565b60008151808452611f7881602086016020860161270e565b601f01601f19169290920160200192915050565b60008151835260018060a01b036020830151166020840152604082015160806040850152611fbd6080850182611f60565b6060938401511515949093019390935250919050565b60008351611fe581846020880161270e565b835190830190611ff981836020880161270e565b01949350505050565b6001600160a01b0391909116815260200190565b6000602080830181845280855180835260408601915060408482028701019250838701855b8281101561206957603f19888603018452612057858351611f8c565b9450928501929085019060010161203b565b5092979650505050505050565b901515815260200190565b600060208252611a4a6020830184611f60565b602080825260159082015274111959dc995948185b1c9958591e481a5cdcdd5959605a1b604082015260600190565b6020808252601a908201527f546f6b656e205552492063616e6e6f7420626520656d70747921000000000000604082015260600190565b602080825260119082015270111959dc9959481b9bdd081a5cdcdd5959607a1b604082015260600190565b60208082526025908201527f4552433732313a207472616e736665722066726f6d20696e636f72726563742060408201526437bbb732b960d91b606082015260800190565b6020808252601c908201527f4552433732313a20746f6b656e20616c7265616479206d696e74656400000000604082015260600190565b6020808252600c908201526b2737ba1030b71037bbb732b960a11b604082015260600190565b60208082526024908201527f4552433732313a207472616e7366657220746f20746865207a65726f206164646040820152637265737360e01b606082015260800190565b60208082526019908201527f4552433732313a20617070726f766520746f2063616c6c657200000000000000604082015260600190565b602080825260149082015273151bdad95b88191bd95cc81b9bdd08195e1a5cdd60621b604082015260600190565b6020808252602c908201527f4552433732313a206f70657261746f7220717565727920666f72206e6f6e657860408201526b34b9ba32b73a103a37b5b2b760a11b606082015260800190565b60208082526038908201527f4552433732313a20617070726f76652063616c6c6572206973206e6f74206f7760408201527f6e6572206e6f7220617070726f76656420666f7220616c6c0000000000000000606082015260800190565b6020808252602a908201527f4552433732313a2062616c616e636520717565727920666f7220746865207a65604082015269726f206164647265737360b01b606082015260800190565b60208082526029908201527f4552433732313a206f776e657220717565727920666f72206e6f6e657869737460408201526832b73a103a37b5b2b760b91b606082015260800190565b6020808252602e908201527f45524337323155524953746f726167653a2055524920736574206f66206e6f6e60408201526d32bc34b9ba32b73a103a37b5b2b760911b606082015260800190565b6020808252818101527f4552433732313a206d696e7420746f20746865207a65726f2061646472657373604082015260600190565b60208082526031908201527f45524337323155524953746f726167653a2055524920717565727920666f72206040820152703737b732bc34b9ba32b73a103a37b5b2b760791b606082015260800190565b6020808252602c908201527f4552433732313a20617070726f76656420717565727920666f72206e6f6e657860408201526b34b9ba32b73a103a37b5b2b760a11b606082015260800190565b6020808252602f908201527f4552433732314d657461646174613a2055524920717565727920666f72206e6f60408201526e3732bc34b9ba32b73a103a37b5b2b760891b606082015260800190565b602080825260159082015274111959dc995948185b1c9958591e48189d5c9b9959605a1b604082015260600190565b60208082526019908201527f44656772656520616c7265616479207265717565737465642100000000000000604082015260600190565b60208082526021908201527f4552433732313a20617070726f76616c20746f2063757272656e74206f776e656040820152603960f91b606082015260800190565b60208082526031908201527f4552433732313a207472616e736665722063616c6c6572206973206e6f74206f6040820152701ddb995c881b9bdc88185c1c1c9bdd9959607a1b606082015260800190565b60208082526017908201527f44656772656520616c726561647920636c61696d656421000000000000000000604082015260600190565b6020808252600e908201526d139bdd08185d5d1a1bdc9a5e995960921b604082015260600190565b600060208252611a4a6020830184611f8c565b90815260200190565b8481526001600160a01b03841660208201526080604082018190526000906126b890830185611f60565b9050821515606083015295945050505050565b600082198211156126de576126de6127a8565b500190565b6000826126f2576126f26127be565b500490565b600082821015612709576127096127a8565b500390565b60005b83811015612729578181015183820152602001612711565b83811115612738576000848401525b50505050565b60028104600182168061275257607f821691505b6020821081141561277357634e487b7160e01b600052602260045260246000fd5b50919050565b600060001982141561278d5761278d6127a8565b5060010190565b6000826127a3576127a36127be565b500690565b634e487b7160e01b600052601160045260246000fd5b634e487b7160e01b600052601260045260246000fd5b634e487b7160e01b600052604160045260246000fdfea264697066735822122019fd10a29fa3c1be44ddd29e8d5a6c26aa500d85f9f6cf4952bf26d2c1e8a5ce64736f6c63430008000033",
  "linkReferences": {},
  "deployedLinkReferences": {}
}